052472605014745197401010000C+43200-071500SY-SA+0104CON  V0209995900005004574EN0048005N1-00395-00395102335ADDAA101000095AA206003091AA324008091AY171999GA1999+004574064GD14085+0045099GD20995+9999999GD30995+9999999GD40995+9999999GF108085081051004501999999KA1999M-00201KA2999N-00401MA1102271101025MD1110141+9999MW1455MW2701MW3715REMSYN029  100 71084 90101 20030 42  3AWY0696SW MHT LGT CHOP 160 DC9?CON?11          ?/18        ?     11/19 12/6EQDQ01  00303PRCP99N01 04070JPWTH 1QNNE11 1 00610E11 1 00099E11 1 00099E11 1 00099G11 1 00015H11 1 15015K11 1 00025L11 1 00300M11 1 29830N11 1 04070Q11 1 10233S11 1 00025V11 1 01010X11 1 00000
012972605014745197401010100D+43200-071500SAO  +0105CON  V0200201N00201006901MN0064001N1-00381-00381102331ADDAA101000095GD14991+0069099GF108991999999999999999999MA1102271101001MW1451REMAWY025SE10?CON?11/18 11/19 12/6EQDQ01+999990APOSP 
012572605014745197401010200D+43200-071500SAO  +0105CON  V0203601N00151006901MN0080001N1-00381-00381102361ADDAA101000095GD14991+0069099GF108991999999999999999999MA1102301101041MW1451REMAWY021?CON?11/18 11/19 12/6EQDQ01+999990APOSP 
041072605014745197401010300C+43200-071500SAO  +0104CON  V0209995900005003054MN0048005N1-00395-00395102335ADDAA101000095AA206000091GA1999+003054134GD14085+0030099GD20995+9999999GD30995+9999999GD40995+9999999GF108085999999999999999999MA1102271101025MD1010001+9999MW1455REMAWY03100000 17//?CON?11/18 11/19 12/6EQDQ01+999990APOSP Q02  00003PRCP99N01 07000JPWTH 1QNNE11 1 00610E11 1 00099E11 1 00099E11 1 00099G11 1 00010H11 1 13010K11 1 00025L11 1 00300M11 1 29830N11 1 07000Q11 1 10233S11 1 00025V11 1 01010X11 1 00000
012572605014745197401010400D+43200-071500SAO  +0105CON  V0203601N00251003601MN0048001N1-00381-00381102361ADDAA101000095GD14991+0036099GF108991999999999999999999MA1102301101041MW1451REMAWY021?CON?11/18 11/19 12/6EQDQ01+999990APOSP 
0090726050147451974010104204+43200-071500SAOSP+0105CON  V0203501N00201002701MN0040001N1+99999+99999999999ADDGD14991+0027099GF108991999999999999999999MA1102241100971MW1451MW2561EQDQ01+999990APOSP 
013672605014745197401010500D+43200-071500SAO  +0105CON  V0209991C00001001801EN0032001N1-00441-00441102251ADDAA101000095GD14991+0018099GF108991999999999999999999MA1102201100941MW1451MW2561REMAWY026ZLB18?CON?11/18 11/19 12/6EQDQ01+999990APOSP 
043772605014745197401010600C+43200-071500SY-SA+0104CON  V0200605N00215001524EN0016005N1-00395-00395102125ADDAA101000095AA224008091AY121999GA1999+001524074GD14085+0015099GD20995+9999999GD30995+9999999GD40995+9999999GF108085081061001501999999KA1999M-00101KA2999N-00401MA1102071100815MD1810201+9999MW1455MW2565REMSYN023  079 70024 20030 42823AWY021?CON?11/18 11/19 12/6EQDN01 03670JPWTH 1QNNE11 1 00610E11 1 00099E11 1 00099E11 1 00099G11 1 00005H11 1 16005K11 1 00025L11 1 00100M11 1 29770N11 1 03670Q11 1 10212S11 1 00025V11 1 01010X11 1 06004
013172605014745197401010700D+43200-071500SAO  +0105CON  V0203301N00411001501EN0016001N1-00331-00331102071ADDAA101000095GD14991+0015099GF108991999999999999999999MA1102031100771MW1451MW2561REMAWY021?CON?11/18 11/19 12/6EQDQ01+999990APOSP 
013172605014745197401010800D+43200-071500SAO  +0105CON  V0200301N00361001201EN0012001N1-00271-00271102091ADDAA101001095GD14991+0012099GF108991999999999999999999MA1102031100771MW1451MW2661REMAWY021?CON?11/18 11/19 12/6EQDQ01+999990APOSP 
042272605014745197401010900C+43200-071500SAO  +0104CON  V0200305N00265002134MN0013005N1-00225-00225101955ADDAA101001096AA206000592GA1999+002134134GA2999+027434054GD13065+0021099GD24025+0027099GD30995+9999999GD40995+9999999GF108085999071999999021999MA1101901100645MD1810171+9999MW1455MW2665REMAWY01081702 172/EQDQ01+999990APOSP Q02  00053PRCP99N01 02670JPWTH 1QNNE11 1 00407E11 1 00603E11 1 00099E11 1 00099G11 1 00007H11 1 13007H11 1 22090K11 1 00028L11 1 00081M11 1 29720N11 1 02670Q11 1 10195S11 1 00028V11 1 01010X11 1 03005
013172605014745197401011000D+43200-071500SAO  +0105CON  V0200201N00251002701MN0012001N1-00221-00221101871ADDAA101000895GD14991+0027099GF108991999999999999999999MA1101831100571MW1451MW2661REMAWY021?CON?11/18 11/19 12/6EQDQ01+999990APOSP 
014672605014745197401011100D+43200-071500SAO  +0105CON  V0209991C000010027019N0012001N1-00161-00161101801ADDAA101000595GD12991+0015099GD24991+0027099GF108991999999999999999999MA1101761100501MW1451MW2661REMAWY021?CON?11/18 11/19 12/6EQDQ01+999990APOSP 
048072605014745197401011200C+43200-071500SY-SA+0104CON  V0200105N00265002744CN0013005N9-00115-00115101835ADDAA101000095AA206003091AA324011091AY161999GA1999+001524134GA2999+002744054GD12025+9999999GD24085+9999999GD30995+9999999GD40995+9999999GF108085021071001501021999KA1999M-00101KA2999N-00301MA1101761100515MD1510121+9999MW1455MW2665REMSYN023  051 71373 20043 42824EQDQ01+999990APOA  Q02  00303PRCP99N01 02670JPWTH 1QNNE11 1 00203E11 1 00610E11 1 00099E11 1 00099G11 1 00009H11 1 13005H11 1 22009K11 1 00030L11 1 00081M11 1 29680N11 1 02670Q11 1 10183S11 1 00030V11 1 01010X11 1 01005
013172605014745197401011300D+43200-071500SAO  +0105CON  V0200101N00251003001EN0064001N1-00111-00111101751ADDAA101000395GD14991+0030099GF108991999999999999999999MA1101691100431MW1451MW2661REMAWY021?CON?11/18 11/19 12/6EQDQ01+999990APOSP 
013172605014745197401011400D+43200-071500SAO  +0105CON  V0203301N00201003001EN0064001N1-00111-00111101751ADDAA101000595GD14991+0030099GF108991999999999999999999MA1101691100431MW1451MW2561REMAWY021?CON?11 18 11/19 12/6EQDQ01+999990APOSP 
044772605014745197401011500C+43200-071500SAO  +0104CON  V0203005N00315001834EN0048005N1-00115-00115101715ADDAA101000396AA206999999GA1999+001834074GD14085+0018099GD20995+9999999GD30995+9999999GD40995+9999999GF108085999999999999999999MA1101661100415MD1810121+9999MW1455MW2565REMAWY04681200 16//?CON?11/1 11/18 11/19          ?12/6EQDQ01+999990APOSP Q02  00003PRCP99Q03  00002PRCP06N01 03670JPWTH 1QNNE11 1 00610E11 1 00099E11 1 00099E11 1 00099G11 1 00006H11 1 16006K11 1 00030L11 1 00300M11 1 29650N11 1 03670Q11 1 10171S11 1 00030V11 1 01010X11 1 30006
016172605014745197401011600D+43200-071500SAO  +0105CON  V0203001N00361001801EN0048001N1-00111-00111101711ADDAA101000395GD14991+0018099GF108991999999999999999999MA1101661100401MW1451REMAWY057ZLE49?CON 1/1 LCI BRAN 1IN IR?11/18 11/19 1          ?2/6EQDQ01+999990APOSP 
014072605014745197401011700D+43200-071500SAO  +0105CON  V0203001N00251001801EN0048001N1-00111-00111101571ADDAA101000595GD14991+0018099GF108991999999999999999999MA1101491100231MW1451MW2661REMAWY030ZRB43?CON?11/18 11/19 12/6 1/1EQDQ01+999990APOSP 
0084726050147451974010117204+43200-071500SAOSP+0105CON  V0203001N00201001801EN0048001N1+99999+99999999999ADDGD14991+0018099GF108991999999999999999999MA1101391100131MW1451EQDQ01+999990APOSP 
048172605014745197401011800C+43200-071500SY-SA+0104CON  V0203005N00265001834EN0048005N1-00115-00115101455ADDAA101000095AA206002091AA324008091AJ199999900008099AY151999GA1999+001834074GD14085+0018099GD20995+9999999GD30995+9999999GD40995+9999999GF108085081061002501999999KA1999N-00301MA1101391100145MW1241MW2455REMSYN035  014 70723 90203 90700 20030 43024AWY036ZRE18 90403?CON?11/18 11/19 12/6 1/1EQDQ01  00203PRCP99N01 07000JPWTH 1QNNE11 1 00610E11 1 00099E11 1 00099E11 1 00099G11 1 00006H11 1 16006K11 1 00030L11 1 00300M11 1 29570N11 1 07000Q11 1 10145S11 1 00030V11 1 01010X11 1 30005
0099726050147451974010119354+43200-071500SAOSP+0105CON  V0203101N002010030019N0160001N1+99999+99999999999ADDGD12991+0018099GD24991+0030099GF108991999999999999999999MA1101521100271MW1001EQDQ01+999990APOSP 
014472605014745197401012000D+43200-071500SAO  +0105CON  V0203001N002010030019N0160001N1+00001+00001101601ADDAA101000095GD12991+0018099GD24991+0030099GF108991999999999999999999MA1101561100301MW1001REMAWY025?CON?11/18 11/19 12/6 1/1EQDQ01+999990APOSP 
046672605014745197401012100C+43200-071500SAO  +0104CON  V02099959000050076249N0160005N1+00005+00005101675ADDAA101000095GA1999+001834064GA2999+007624064GA3999+015244064GA4999+999999999GD12015+0018099GD23045+0075099GD33025+0150099GD40005+9999999GF106065999999999999999999MA1101631100375MD1310221+9999MW1001REMAWY033322 1500?CON?11/18 11/19 12/6 1/1EQDQ01+999990APOSP N01 00000JPWTH 1QNNE11 1 00201E11 1 00405E11 1 00402E11 1 00000G11 1 00025H11 1 15006H11 1 15025H11 1 15050H11 1 00999K11 1 00032L11 1 01000M11 1 29640N11 1 00000Q11 1 10167S11 1 00032V11 1 00808X11 1 00000
012972605014745197401012200D+43200-071500SAO  +0105CON  V0209991C00001006001EN0112001N1-00051-00051101701ADDAA101000095GD14991+0060099GF108991999999999999999999MA1101661100401MW1001REMAWY025?CON?11/18 11/19 12/6 1/1EQDQ01+999990APOSP 
012972605014745197401012300D+43200-071500SAO  +0105CON  V0202801N00411006001EN0112001N1+00051+00001101831ADDAA101000095GD13991+0060099GF107991999999999999999999MA1101801100541MW1001REMAWY025?CON?11/18 11/19 12/6 1/1EQDQ01+999990APOSP 
047272605014745197401020000C+43200-071500SY-SA+0104CON  V0203005N00525009144EN0112005N1+00065-00175101985ADDAA101000095AA224005091AY121999GA1999+009144064GA2999+024384034GD13055+0090099GD24035+0240099GD30995+9999999GD40995+9999999GF108085051051008001071999KA1999M+00101KA2999N-00301MA1101931100685MD1210301+9999MW1021REMSYN017  066 20020 43324AWY025?CON?11/18 11/19 12/6 1/1EQDQ01+000003PRSWM2N01 00000JPWTH 1QNNE11 1 00406E11 1 00604E11 1 00099E11 1 00099G11 1 00030H11 1 15030H11 1 23080K11 1 00029L11 1 00700M11 1 29730N11 1 00000Q11 1 10198S11 1 00033V11 1 01010X11 1 30010
014472605014745197401020100D+43200-071500SAO  +0105CON  V0202801N00461009001EN0112001N1+00001-00221102081ADDAA101000095GD13991+0090099GD24991+0300099GF108991999999999999999999MA1102031100771MW1001REMAWY025?CON?11/18 11/19 12/6 1/1EQDQ01+999990APOSP 
014472605014745197401020200D+43200-071500SAO  +0105CON  V0202901N005110300019N0112001N1-00051-00381102181ADDAA101000095GD12991+0090099GD23991+0300099GF107991999999999999999999MA1102131100871MW1001REMAWY025?CON?11/18 11/19 12/6 1/1EQDQ01+999990APOSP 
046672605014745197401020300C+43200-071500SAO  +0104CON  V0202905N002650304849N0112005N1-00115-00505102315ADDAA101000095GA1999+009144064GA2999+030484034GA3999+999999999GA4999+999999999GD12035+0090099GD23025+0300099GD30005+9999999GD40005+9999999GF105055999999999999999999MA1102271101025MD1210341+9999MW1001REMAWY033234 1570?CON?11/18 11/19 12/6 1/6EQDQ01+999990APOSP N01 00000JPWTH 1QNNE11 1 00204E11 1 00402E11 1 00000E11 1 00000G11 1 00100H11 1 15030H11 1 23100H11 1 00999H11 1 00999K11 1 00023L11 1 00700M11 1 29830N11 1 00000Q11 1 10231S11 1 00030V11 1 00606X11 1 29005
014472605014745197401020400D+43200-071500SAO  +0105CON  V0203001N004610300019N0112001N1-00221-00611102421ADDAA101000095GD12991+0090099GD23991+0300099GF107991999999999999999999MA1102371101111MW1001REMAWY025?CON?11/18 11/19 12/6 1/1EQDQ01+999990APOSP 
012972605014745197401020500D+43200-071500SAO  +0105CON  V0202801N00411011101MN0112001N1-00271-00661102491ADDAA101000095GD13991+0111099GF107991999999999999999999MA1102441101171MW1001REMAWY025?CON?11/18 11/19 12/6 1/1EQDQ01+999990APOSP 
044572605014745197401020600C+43200-071500SY-SA+0104CON  V0202805N00465012194MN0112005N1-00285-00675102555ADDAA101000095AA224005091AY121999GA1999+012194064GD14085+0120099GD20995+9999999GD30995+9999999GD40995+9999999GF108085081051012501999999KA1999M+00101KA2999N-00301MA1102511101255MD1210241+9999MW1031REMSYN017  123 20020 43325AWY025?CON?11/18 11/19 12/6 1/1EQDQ01+000003PRSWM2N01 00000JPWTH 1QNNE11 1 00610E11 1 00099E11 1 00099E11 1 00099G11 1 00040H11 1 15040K11 1 00020L11 1 00700M11 1 29900N11 1 00000Q11 1 10255S11 1 00027V11 1 01010X11 1 28009
012972605014745197401020700D+43200-071500SAO  +0105CON  V0202801N00251012001EN0112001N1-00271-00661102701ADDAA101000095GD13991+0120099GF107991999999999999999999MA1102641101371MW1001REMAWY025?CON?11/18 11/19 12/6 1/1EQDQ01+999990APOSP 
012972605014745197401020800D+43200-071500SAO  +0105CON  V0202801N00361013501MN0112001N1-00331-00831102801ADDAA101000095GD14991+0135099GF108991999999999999999999MA1102741101471MW1001REMAWY025?CON?11/18 11/19 12/6 1/1EQDQ01+999990APOSP 
046672605014745197401020900C+43200-071500SAO  +0104CON  V0202905N00525013724MN0112005N1-00445-00835102915ADDAA101000095GA1999+013724064GA2999+999999999GA3999+999999999GA4999+999999999GD13065+0135099GD20005+9999999GD30005+9999999GD40005+9999999GF106065999999999999999999MA1102841101595MD1210341+9999MW1001REMAWY033234 1500?CON?11/18 11/19 12/6 1/1EQDQ01+999990APOSP N01 00000JPWTH 1QNNE11 1 00407E11 1 00000E11 1 00000E11 1 00000G11 1 00045H11 1 15045H11 1 00999H11 1 00999H11 1 00999K11 1 00017L11 1 00700M11 1 30000N11 1 00000Q11 1 10291S11 1 00024V11 1 00707X11 1 29010
012972605014745197401021000D+43200-071500SAO  +0105CON  V0203101N00411013501EN0112001N1-00501-00831102991ADDAA101000095GD13991+0135099GF107991999999999999999999MA1102911101641MW1001REMAWY025?CON?11/18 11/19 12/6 1/1EQDQ01+999990APOSP 
012972605014745197401021100D+43200-071500SAO  +0105CON  V0203201N00461013501EN0112001N1-00661-01051103151ADDAA101000095GD13991+0135099GF107991999999999999999999MA1103081101811MW1001REMAWY025?CON?11/18 11/19 12/6 1/1EQDQ01+999990APOSP 
049572605014745197401021200C+43200-071500SY-SA+0104CON  V0203105N004650304849N0240005N1-00785-01285103285ADDAA101000095AA224002091AY121999GA1999+013724064GA2999+030484034GD12025+0135099GD24065+0300099GD30995+9999999GD40995+9999999GF108085021051012501071999KA1999M+00101MA1103221101935MD1310241+9999MW1031REMSYN024  192 20007 43318 290116AWY038BINOVC 90403?CON C1/1?11/18 11/19 12/6EQDQ01+000072SCOTCVQ02+000003PRSWM2N01 00000JPWTH 1QNNE11 1 00202E11 1 00608E11 1 00099E11 1 00099G11 1 00100H11 1 15045H11 1 23100K11 1 00009L11 1 01500M11 1 30100N11 1 00000Q11 1 10328S11 1 00018V11 1 01010X11 1 31009
014072605014745197401021300D+43200-071500SAO  +0105CON  V0203101N003610600019N0320001N1-00941-01381103401ADDAA101000095GD12991+0300099GD23991+0600099GF107991999999999999999999MA1103351102081MW1001REMAWY021?CON?11/18 11/19 12/6EQDQ01+999990APOSP 
012572605014745197401021400D+43200-071500SAO  +0105CON  V0203001N004112200019N0320001N1-00941-01441103421ADDAA101000095GD12991+0750099GF102991999999999999999999MA1103351102081MW1001REMAWY021?CON?11/18 11/19 12/6EQDQ01+999990APOSP 
047072605014745197401021500C+43200-071500SAO  +0104CON  V0203005N00465076204EN0320005N1-00945-01445103635ADDAA101000095GA1999+076204004GA2999+999999999GA3999+999999999GA4999+999999999GD13055+0750099GD20005+9999999GD30005+9999999GD40005+9999999GF105035999999999999999999MA1103561102305MD1110371+9999MW1001REMAWY037PRESRR/ 137 1001?CON?11/18 11/19 12/6EQDQ01+999990APOSP N01 00000JPWTH 1QNNE11 1 00406E11 1 00000E11 1 00000E11 1 00000G11 1 00250H11 1 32250H11 1 00999H11 1 00999H11 1 00999K11 1 00006L11 1 02000M11 1 30210N11 1 00000Q11 1 10363S11 1 00015V11 1 00604X11 1 30009
012572605014745197401021700D+43200-071500SAO  +0105CON  V0203001N00461075001EN0320001N1-00881-01381103591ADDAA101000095GD13991+0750099GF107991999999999999999999MA1103521102241MW1001REMAWY021?CON?11/18 11/19 12/6EQDQ01+999990APOSP 
045672605014745197401021800C+43200-071500SAO  +0104CON  V0203505N003152200059N0320005N1-00835-01335103505ADDAA101000095GA1999+999999064GA2999+076204004GA3999+999999999GA4999+999999999GD13999+0750093GD20065+9999999GD30005+9999999GD40005+9999999GF106025999999999999999999MA1103451102175MW1001REMAWY021?CON?11/18 11/19 12/6EQDQ01+999990APOSP N01 00000JPWTH 1P01    003SCCGD1QNNE11 1 00300E11 1 00007E11 1 00000E11 1 00000G11U1 99999H11 1 15999H11 1 32250H11 1 00999H11 1 00999K11 1 00008L11 1 02000M11 1 30170N11 1 00000Q11 1 10350S11 1 00017V11 1 00703X11 1 35006
012572605014745197401021900D+43200-071500SAO  +0105CON  V0203601N003612200019N0320001N1-00771-01271103471ADDAA101000095GD13991+0750093GF107991999999999999999999MA1103421102141MW1001REMAWY021?CON?11/18 11/19 12/6EQDQ01+999990APOSP 
012572605014745197401022000D+43200-071500SAO  +0105CON  V0203501N001512200019N0320001N1-00771-01221103531ADDAA101000095GD13991+0750093GF107991999999999999999999MA1103451102181MW1001REMAWY021?CON?11/18 11/19 12/6EQDQ01+999990APOSP 
046272605014745197401022100C+43200-071500SAO  +0104CON  V0200305N001552200059N0320005N1-00785-01225103545ADDAA101000095GA1999+030484034GA2999+076204004GA3999+999999999GA4999+999999999GD12025+0300099GD23035+0750093GD30005+9999999GD40005+9999999GF106025999999999999999999MA1103451102205MD1110021+9999MW1001REMAWY029102 1071?CON?11/18 11/19 12/6EQDQ01+999990APOSP N01 00000JPWTH 1QNNE11 1 00203E11 1 00304E11 1 00000E11 1 00000G11U1 99999H11 1 23100H11 1 32250H11 1 00999H11 1 00999K11 1 00010L11 1 02000M11 1 30180N11 1 00000Q11 1 10354S11 1 00018V11 1 00703X11 1 03003
014072605014745197401022200D+43200-071500SAO  +0105CON  V0201501N001512200019N0112001N1-00941-01111103571ADDAA101000095GD12991+0300099GD23991+0750093GF107991999999999999999999MA1103491102211MW1001REMAWY021?CON?11/18 11/19 12/6EQDQ01+999990APOSP 
013972605014745197401022300D+43200-071500SAO  +0105CON  V0209991C000012200019N0112001N1-01051-01161103541ADDAA101000095GD12991+0300099GD23991+0750093GF107991999999999999999999MA1103451102181MW1001REMAWY020?CON11/18 11/19 12/6EQDQ01+999990APOSP 
044072605014745197401030000C+43200-071500SAO  +0104CON  V0209995900005030484EN0112005N1-01005-01115103545ADDAA101000095GA1999+030484034GA2999+999999999GA3999+999999999GA4999+999999999GD13065+0300099GD20005+9999999GD30005+9999999GD40005+9999999GF106065999999999999999999MA1103451102205MW1001REMAWY021?CON 11/18 11/19 12/6EQDQ01+999990APOSP N01 00000JPWTH 1QNNE11 1 00407E11 1 00000E11 1 00000E11 1 00000G11 1 00100H11 1 23100H11 1 00999H11 1 00999H11 1 00999K11 1 00012L11 1 00700M11 1 30180N11 1 00000Q11 1 10354S11 1 00014V11 1 00707X11 1 00000
014072605014745197401030100D+43200-071500SAO  +0105CON  V0209991C000012200019N0112001N1-01051-01111103571ADDAA101000095GD12991+0300099GD23991+0750093GF107991999999999999999999MA1103491102211MW1001REMAWY021?CON?11/18 11/19 12/6EQDQ01+999990APOSP 
014072605014745197401030200D+43200-071500SAO  +0105CON  V0209991C00001030001EN0112001N1-01001-01051103521ADDAA101000095GD13991+0300099GD24991+0750099GF108991999999999999999999MA1103421102141MW1001REMAWY021?CON?11/18 11/19 12/6EQDQ01+999990APOSP 
044172605014745197401030300C+43200-071500SAO  +0104CON  V0209995900005024384EN0112005N1-01005-01065103455ADDAA101000095GA1999+024384034GA2999+076204024GA3999+999999999GA4999+999999999GD13055+0240099GD24085+0750099GD30005+9999999GD40005+9999999GF108065999001999999071991MA1103351102105MD1810101+9999MW1001REMAWY008810 1077EQDQ01+999990APOSP N01 00000JPWTH 1QNNE11 1 00406E11 1 00610E11 1 00000E11 1 00000G11 1 00080H11 1 23080H11 1 37250H11 1 00999H11 1 00999K11 1 00013L11 1 00700M11 1 30150N11 1 00000Q11 1 10345S11 1 00014V11 1 01008X11 1 00000
014072605014745197401030400D+43200-071500SAO  +0105CON  V0209991C000010240019N0112001N1-00881-00881103451ADDAA101000095GD12991+0120099GD24991+0240099GF108991999999999999999999MA1103351102081MW1001REMAWY021?CON?11/18 11/19 12/6EQDQ01+999990APOSP 
012972605014745197401030500D+43200-071500SAO  +0105CON  V0201801N00251015001EN0112001N1-00771-00881103351ADDAA101000095GD14991+0150099GF108991999999999999999999MA1103251101981MW1701REMAWY025SB20?CON?11/18 11/19 12/6EQDQ01+999990APOSP 
043472605014745197401030600C+43200-071500SY-SA+0104CON  V0202205N00315015244EN0112005N1-00725-00895103265ADDAA101000095AY121999GA1999+015244074GD14085+0150099GD20995+9999999GD30995+9999999GD40995+9999999GF108085081061017501999999KA1999M-00201KA2999N-01001MA1103181101935MD1810171+9999MW1221REMSYN017  190 70023 42713AWY025SE30?CON?11/18 11/19 12/6EQDQ01+000003PRSWM2N01 00000JPWTH 1QNNE11 1 00610E11 1 00099E11 1 00099E11 1 00099G11 1 00050H11 1 16050K11 1 00016L11 1 00700M11 1 30100N11 1 00000Q11 1 10326S11 1 00019V11 1 01010X11 1 22006
012572605014745197401030700D+43200-071500SAO  +0105CON  V0202001N00201015001EN0112001N1-00661-00831103261ADDAA101000095GD14991+0150099GF108991999999999999999999MA1103181101911MW1001REMAWY021?CON?11/18 11/19 12/6EQDQ01+999990APOSP 
012572605014745197401030800D+43200-071500SAO  +0105CON  V0209991C00001015001EN0112001N1-00661-00831103221ADDAA101000095GD14991+0150099GF108991999999999999999999MA1103151101881MW1001REMAWY021?CON?11/18 11/19 12/6EQDQ01+999990APOSP 
038172605014745197401030900C+43200-071500SAO  +0104CON  V0202405N00155021344EN0112005N1-00675-00835103225ADDAA101000095GA1999+021344044GD14085+0210099GD20995+9999999GD30995+9999999GD40995+9999999GF108085999999999999999999MA1103151101865MD1610051+9999MW1001REMAWY029605 102/?CON?11/18 11/19 12/6EQDQ01+999990APOSP N01 00000JPWTH 1QNNE11 1 00610E11 1 00099E11 1 00099E11 1 00099G11 1 00070H11 1 21070K11 1 00017L11 1 00700M11 1 30080N11 1 00000Q11 1 10322S11 1 00020V11 1 01010X11 1 24003
012572605014745197401031000D+43200-071500SAO  +0105CON  V0202301N00201024001EN0112001N1-00661-00831103171ADDAA101000095GD14991+0240099GF108991999999999999999999MA1103081101811MW1001REMAWY021?CON?11/18 11/19 12/6EQDQ01+999990APOSP 
045272605014745197401031200C+43200-071500SY-SA+0104CON  V0209995900005030484EN0240005N1-00675-00895103155ADDAA101000095AJ100089199999999AY121999GA1999+030484034GD14085+0300099GD20995+9999999GD30995+9999999GD40995+9999999GF108085081001999999071999KA1999M-00201KA2999N-01001MA1103081101795MD1810071+9999MW1021REMSYN017  179 90403 42713AWY02690403?CON?11/18 11/19 12/6EQDQ01+000003PRSWM2N01 00000JPWTH 1QNNE11 1 00610E11 1 00099E11 1 00099E11 1 00099G11 1 00100H11 1 23100K11 1 00016L11 1 01500M11 1 30060N11 1 00000Q11 1 10315S11 1 00020V11 1 01010X11 1 00000
013172605014745197401031300D+43200-071500SAO  +0105CON  V0209991C00001030001EN0320001N1-00661-00881103181ADDAA101000095GD14991+0300099GF108991999999999999999999MA1103121101841MW1001REMAWY027BINOVC?CON?11/18 11/19 12/6EQDQ01+999990APOSP 
012572605014745197401031400D+43200-071500SAO  +0105CON  V0202501N00151030001EN0320001N1-00611-00831103201ADDAA101000095GD13991+0300099GF107991999999999999999999MA1103121101841MW1001REMAWY021?CON?11/18 11/19 12/6EQDQ01+999990APOSP 
046272605014745197401031500C+43200-071500SAO  +0104CON  V02099959000052200059N0320005N1-00615-00835103175ADDAA101000095GA1999+030484034GA2999+076204004GA3999+999999999GA4999+999999999GD12025+0300099GD23035+0750093GD30005+9999999GD40005+9999999GF106025999999999999999999MA1103081101835MD1010021+9999MW1001REMAWY029002 107/?CON?11/18 11/19 12/6EQDQ01+999990APOSP N01 00000JPWTH 1QNNE11 1 00203E11 1 00304E11 1 00000E11 1 00000G11U1 99999H11 1 23100H11 1 32250H11 1 00999H11 1 00999K11 1 00017L11 1 02000M11 1 30070N11 1 00000Q11 1 10317S11 1 00021V11 1 00703X11 1 00000
014072605014745197401031600D+43200-071500SAO  +0105CON  V0202701N001010750019N0320001N1-00551-00881103071ADDAA101000095GD12991+0300099GD23991+0750099GF107991999999999999999999MA1102981101711MW1001REMAWY021?CON?11/18 11/19 12/6EQDQ01+999990APOSP 
014072605014745197401031700D+43200-071500SAO  +0105CON  V0209991C00001030001EN0320001N1-00501-00831102931ADDAA101000095GD13991+0300099GD23991+0750099GF107991999999999999999999MA1102841101571MW1001REMAWY021?CON?11/18 11/19 12/6EQDQ01+999990APOSP 
044072605014745197401031800C+43200-071500SAO  +0104CON  V0203405N00315030484EN0320005N1-00445-00835102845ADDAA101000095GA1999+030484034GA2999+999999999GA3999+999999999GA4999+999999999GD13075+0300099GD20005+9999999GD30005+9999999GD40005+9999999GF107075999999999999999999MA1102781101525MW1001REMAWY021?CON?11/18 11/19 12/6EQDQ01+999990APOSP N01 00000JPWTH 1QNNE11 1 00409E11 1 00000E11 1 00000E11 1 00000G11 1 00100H11 1 23100H11 1 00999H11 1 00999H11 1 00999K11 1 00017L11 1 02000M11 1 29980N11 1 00000Q11 1 10284S11 1 00024V11 1 00909X11 1 34006
012572605014745197401031900D+43200-071500SAO  +0105CON  V0203101N00151021001EN0320001N1-00441-00831102741ADDAA101000095GD14991+0210099GF108991999999999999999999MA1102681101411MW1001REMAWY021?CON?11/18 11/19 12/6EQDQ01+999990APOSP 
012572605014745197401032000D+43200-071500SAO  +0105CON  V0209991C00001021001EN0320001N1-00441-00831102741ADDAA101000095GD14991+0210099GF108991999999999999999999MA1102681101411MW1001REMAWY021?CON?11/18 11/19 12/6EQDQ01+999990APOSP 
040872605014745197401032100C+43200-071500SAO  +0104CON  V02099959000050213449N0320005N1-00445-00675102645ADDAA101000095GA1999+015244064GA2999+021344034GD12025+0150099GD24065+0210099GD30995+9999999GD40995+9999999GF108085999999999999999999MA1102571101325MD1810201+9999MW1001REMAWY029820 157/?CON?11/18 11/19 12/6EQDQ01+999990APOSP N01 00000JPWTH 1QNNE11 1 00203E11 1 00607E11 1 00099E11 1 00099G11 1 00070H11 1 15050H11 1 23070K11 1 00020L11 1 02000M11 1 29920N11 1 00000Q11 1 10264S11 1 00024V11 1 01010X11 1 00000
014072605014745197401032200D+43200-071500SAO  +0105CON  V0200101N00151015001EN0240001N1-00441-00661102681ADDAA101000095GD13991+0150099GD24991+0240099GF108991999999999999999999MA1102641101371MW1001REMAWY021?CON?11/18 11/19 12/6EQDQ01+999990APOSP 
012572605014745197401032300D+43200-071500SAO  +0105CON  V0200501N00151015001EN0112001N1-00441-00661102651ADDAA101000095GD14991+0150099GF108991999999999999999999MA1102611101341MW1001REMAWY021?CON?11/18 11/19 12/6EQDQ01+999990APOSP 
042472605014745197401040000C+43200-071500SY-SA+0104CON  V0209995900005015244EN0112005N1-00505-00675102595ADDAA101000095AY121999GA1999+015244064GD14085+0150099GD20995+9999999GD30995+9999999GD40995+9999999GF108085081051017501999999KA1999M-00301KA2999N-00601MA1102541101255MD1810051+9999MW1021REMSYN011  125 42419AWY021?CON?11/18 11/19 12/6EQDQ01+000003PRSWM2N01 00000JPWTH 1QNNE11 1 00610E11 1 00099E11 1 00099E11 1 00099G11 1 00050H11 1 15050K11 1 00020L11 1 00700M11 1 29900N11 1 00000Q11 1 10259S11 1 00023V11 1 01010X11 1 00000
012972605014745197401040200D+43200-071500SAO  +0105CON  V0209991C00001003001WN0016001N1-00501-00611102521ADDAA101000095GD15991+0030099GF109991999999999999999999MA1102471101211MW1711REMAWY025SB25?CON?11/18 11/19 12/6EQDQ01+999990APOSP 
036472605014745197401040300C+43200-071500SAO  +0104CON  V0209995900005001224WN0016005N1-00505-00615102425ADDAA101000595GA1999+001224104GD15085+0012099GD20995+9999999GD30995+9999999GD40995+9999999GF108085999999999999999999MA1102371101085MW1715REMAWY02681700?CON?11/18 11/19 12/6EQDQ01+999990APOSP N01 04000JPWTH 1QNNE11 1 00710E11 1 00099E11 1 00099E11 1 00099G11 1 00004H11 1 98004K11 1 00021L11 1 00100M11 1 29850N11 1 04000Q11 1 10242S11 1 00023V11 1 01010X11 1 00000
012572605014745197401040400D+43200-071500SAO  +0105CON  V0209991C00001001801WN0024001N1-00551-00611102351ADDAA101000595GD15991+0018099GF109991999999999999999999MA1102301101041MW1711REMAWY021?CON?11/18 11/19 12/6EQDQ01+999990APOSP 
012572605014745197401040500D+43200-071500SAO  +0105CON  V0209991C00001015001EN0048001N1-00551-00611102271ADDAA101000395GD14991+0150099GF108991999999999999999999MA1102241100971MW1711REMAWY021?CON?11/18 11/19 12/6EQDQ01+999990APOSP 
036472605014745197401040600C+43200-071500SAO  +0104CON  V0209995900005003664WN0024005N1-00615-00675102225ADDAA101000095GA1999+003664104GD15085+0036099GD20995+9999999GD30995+9999999GD40995+9999999GF108085999999999999999999MA1102171100915MW1715REMAWY02690403?CON?11/18 11/19 12/6EQDQ01+999990APOSP N01 04000JPWTH 1QNNE11 1 00710E11 1 00099E11 1 00099E11 1 00099G11 1 00012H11 1 98012K11 1 00020L11 1 00150M11 1 29800N11 1 04000Q11 1 10222S11 1 00021V11 1 01010X11 1 00000
013172605014745197401040700D+43200-071500SAO  +0105CON  V0209991C00001002401WN0016001N1-00611-00661102201ADDAA101000395GD15991+0024099GF109991999999999999999999MA1102131100871MW1451MW2771REMAWY021?CON?11/18 11/19 12/6EQDQ01+999990APOSP 
013172605014745197401040800D+43200-071500SAO  +0105CON  V0209991C00001003001WN0024001N1-00611-00661102201ADDAA101000095GD15991+0030099GF109991999999999999999999MA1102131100871MW1451MW2711REMAWY021?CON?11/18 11/19 12/6EQDQ01+999990APOSP 
038772605014745197401040900C+43200-071500SAO  +0104CON  V0209995900005007624EN0032005N1-00615-00675102185ADDAA101000095GA1999+007624054GD14085+0075099GD20995+9999999GD30995+9999999GD40995+9999999GF108085999999999999999999MA1102101100855MD1810051+9999MW1455MW2715REMAWY029805 102/?CON?11/18 11/19 12/6EQDQ01+999990APOSP N01 04070JPWTH 1QNNE11 1 00610E11 1 00099E11 1 00099E11 1 00099G11 1 00025H11 1 22025K11 1 00020L11 1 00200M11 1 29780N11 1 04070Q11 1 10218S11 1 00021V11 1 01010X11 1 00000
012972605014745197401041000D+43200-071500SAO  +0105CON  V0209991C00001012001EN0112001N1-00661-00721102121ADDAA101000095GD13991+0120099GF107991999999999999999999MA1102071100801MW1001REMAWY025SE30?CON?11/18 11/19 12/6EQDQ01+999990APOSP 
012572605014745197401041100D+43200-071500SAO  +0105CON  V0209991C00001012001EN0112001N1-00831-00831102141ADDAA101000095GD14991+0120099GF108991999999999999999999MA1102071100801MW1001REMAWY021?CON?11/18 11/19 12/6EQDQ01+999990APOSP 
052272605014745197401041200C+43200-071500SY-SA+0104CON  V0209995900005012194EN0112005N1-01005-01065102195ADDAA101000095AA206000291AA324002091AY171999GA1999+012194064GA2999+030484034GD13065+0120099GD24025+0300099GD30995+9999999GD40995+9999999GF108085061051012501071999KA1999M-00301MA1102131100855MD1510001+9999MW1021REMSYN029  085 70133 90101 20006 42414AWY033BINOVC 90403?CON?11/18 11/19 12/6EQDQ01+000072SCOTCVQ02+000003PRSWM2Q03  00023PRCP99N01 00000JPWTH 1QNNE11 1 00408E11 1 00602E11 1 00099E11 1 00099G11 1 00040H11 1 15040H11 1 23100K11 1 00013L11 1 00700M11 1 29780N11 1 00000Q11 1 10219S11 1 00014V11 1 01010X11 1 00000
016872605014745197401041300D+43200-071500SAO  +0105CON  V0209991C000012200019N0112001N1-01111-01161102261ADDAA101000095GD12991+0300099GD22991+0750099GF102991999999999999999999MA1102171100901MW1001REMAWY049PTCHY GF OBSCG RDGS?CON?11/18 11/19 12/        ?6EQDQ01+999990APOSP 
011072605014745197401041400D+43200-071500SAO  +0105CON  V0209991C000012200019N0128001N1-01051-01111102261ADDAA101000095GF100991999999999999999999MA1102201100941MW1001REMAWY021?CON?11/18 11/19 12/6EQDQ01+999990APOSP 
044772605014745197401041500C+43200-071500SAO  +0104CON  V02099959000052200059N0160005N1-00725-00785102295ADDAA101000095GA1999+999999084GA2999+999999034GA3999+999999999GA4999+999999999GD10005+9999999GD20005+9999999GD30005+9999999GF100005999999999999999999MA1102241100955MD1110101+9999MW1001REMAWY029110 1130?CON?11/18 11/19 12/6EQDQ01+999990APOSP N01 00000JPWTH 1QNNE11 1 00000E11 1 00000E11 1 00000E11 1 00000G11U1 99999H11 1 11999H11 1 23999H11 1 00999H11 1 00999K11 1 00018L11 1 01000M11 1 29810N11 1 00000Q11 1 10229S11 1 00019V11 1 00000X11 1 00000
012572605014745197401041600D+43200-071500SAO  +0105CON  V0209991C000012200019N0192001N1-00611-00721102231ADDAA101000095GD12991+0300099GF102991999999999999999999MA1102171100901MW1001REMAWY021?CON?11/18 11/19 12/6EQDQ01+999990APOSP 
011672605014745197401041700D+43200-071500SAO  +0105CON  V0209991C000012200019N0192001N1-00381-00661102111ADDAA101000095GF100991999999999999999999MA1102071100801MW1001REMAWY027FEW CU?CON?11/18 11/19 12/6EQDQ01+999990APOSP 
042572605014745197401041800C+43200-071500SAO  +0104CON  V02099959000052200059N0240005N1-00285-00725102025ADDAA101000095GA1999+999999084GA2999+999999999GA3999+999999999GA4999+999999999GD10005+9999999GD20005+9999999GD30005+9999999GF100005999999999999999999MA1101961100715MW1001REMAWY021?CON?11/18 11/19 12/6EQDQ01+999990APOSP N01 00000JPWTH 1QNNE11 1 00000E11 1 00000E11 1 00000E11 1 00000G11U1 99999H11 1 11999H11 1 00999H11 1 00999H11 1 00999K11 1 00019L11 1 01500M11 1 29740N11 1 00000Q11 1 10202S11 1 00027V11 1 00000X11 1 00000
012572605014745197401041900D+43200-071500SAO  +0105CON  V0202401N003612200019N0240001N1-00111-00611101971ADDAA101000095GD12991+0075099GF102991999999999999999999MA1101931100671MW1001REMAWY021?CON?11/18 11/19 12/6EQDQ01+999990APOSP 
012572605014745197401042000D+43200-071500SAO  +0105CON  V0201901N00051013501EN0240001N1-00111-00551101981ADDAA101000095GD13991+0135099GF107991999999999999999999MA1101931100671MW1001REMAWY021?CON?11/18 11/19 12/6EQDQ01+999990APOSP 
038872605014745197401042100E+43200-071500SAO  +0104CON  V0202005N000550137249N024000599-00285-00615101985ADDAA101000095GA1999+013724064GA2999+999999999GA3999+999999999GA4999+999999999GD13065+9999999GD20005+9999999GD30005+9999999GD40005+9999999GF106065999999999999999999MA1999999100685EQDN01 00000JPWTH 1QNNE11 1 00407E11 1 00000E11 1 00000E11 1 00000G11 1 00045H11 1 15045H11 1 00999H11 1 00999H11 1 00999K11 1 00021L11 1 01500M11 1 29730N11 1 00000Q11 1 10198S11 1 00027V11 1 00707X11 1 20001
012572605014745197401042200D+43200-071500SAO  +0105CON  V0202701N00251013501EN0240001N1-00161-00661102001ADDAA101000095GD13991+0135099GF107991999999999999999999MA1101961100701MW1001REMAWY021?CON?11/18 11/19 12/6EQDQ01+999990APOSP 
012572605014745197401042300D+43200-071500SAO  +0105CON  V0202301N003012200019N0112001N1-00331-00771102051ADDAA101000095GD12991+0135099GF102991999999999999999999MA1102001100741MW1001REMAWY021?CON?11/18 11/19 12/6EQDQ01+999990APOSP 
050972605014745197401050000C+43200-071500SY-SA+0104CON  V0202405N002652200059N0112005N1-00505-00835102145ADDAA101000095AA224002091AY111999GA1999+013724064GA2999+999999999GA3999+999999999GA4999+999999999GD12045+0135099GD20005+9999999GD30005+9999999GD40005+9999999GF104035041051012501001991KA1999N-01101MA1102071100815MD1210151+9999MW1021REMSYN017  081 20006 43010AWY021?CON?11/18 11/19 12/6EQDQ01+000003PRSWM2N01 00000JPWTH 1QNNE11 1 00205E11 1 00000E11 1 00000E11 1 00000G11U1 99999H11 1 15045H11 1 00999H11 1 00999H11 1 00999K11 1 00017L11 1 00700M11 1 29770N11 1 00000Q11 1 10214S11 1 00023V11 1 00504X11 1 24005
014172605014745197401050100D+43200-071500SAO  +0105CON  V0202101N002512200019N9999999N9-00661-00941102141ADDAA101000095GD12991+0135099GF102991999999999999999999MA1102071100801MW1001REMAWY021?CON?11/18 11/19 12/6EQDQ01+999990APOSP Q02+000002VOVAR 
012572605014745197401050200D+43200-071500SAO  +0105CON  V0202501N004112200019N0112001N1-00551-00881102141ADDAA101000095GD12991+0135099GF102991999999999999999999MA1102071100801MW1001REMAWY021?CON?11/18 11/19 12/6EQDQ01+999990APOSP 
023172605014745197401050300C+43200-071500SAO  +0104CON  V0201805N001552200059N0112005N1-00725-01065102205ADDAA101000095GF100005999999999999999999MA1102131100885MW1001REMAWY024307?CON?11/19 11/18 12/6EQDQ01+999990APOSP N01 00000JPWTH 1QNNG11U1 99999K11 1 00013L11 1 00700M11 1 29790N11 1 00000Q11 1 10220S11 1 00019V11 1 00000X11 1 18003
012572605014745197401050400D+43200-071500SAO  +0105CON  V0209991C000012200019N0112001N1-00661-01001102241ADDAA101000095GD12991+0120099GF102991999999999999999999MA1102171100901MW1001REMAWY021?CON?11/18 11/19 12/6EQDQ01+999990APOSP 
012572605014745197401050500D+43200-071500SAO  +0105CON  V0202401N00151006001MN0112001N1-00661-01051102241ADDAA101000095GD13991+0060099GF107991999999999999999999MA1102171100901MW1001REMAWY021?CON?11/18 11/19 12/6EQDQ01+999990APOSP 
035972605014745197401050600C+43200-071500SAO  +0104CON  V0202905N00155007014MN0112005N1-00835-01065102265ADDAA101000095GA1999+007014064GD14085+0069099GD20995+9999999GD30995+9999999GD40995+9999999GF108085999999999999999999MA1102201100955MW1001REMAWY021?CON?11/18 11/19 12/6EQDQ01+999990APOSP N01 00000JPWTH 1QNNE11 1 00610E11 1 00099E11 1 00099E11 1 00099G11 1 00023H11 1 15023K11 1 00013L11 1 00700M11 1 29810N11 1 00000Q11 1 10226S11 1 00017V11 1 01010X11 1 29003
012572605014745197401050700D+43200-071500SAO  +0105CON  V0209991C00001009001EN0112001N1-00941-01111102341ADDAA101000095GD13991+0090099GF107991999999999999999999MA1102271101001MW1001REMAWY021?CON?11/18 11/19 12/6EQDQ01+999990APOSP 
021372605014745197401050800D+43200-071500SAO  +0105CON  V0209999999999009601MN0112001N1-01161-01221102351ADDAA101000095GD14991+0096099GF108991999999999999999999MA1102271100991MW1001REMAWY077020/ BINOVC?CON?11/18 11/19 12/6         ?     COS GWTPVQTZ WPTXEXQPXPRPUXOIYEQDQ01+030003APOA  Q02+999990APOSP Q03+999990APOA  
046272605014745197401050900C+43200-071500SAO  +0104CON  V02099959000052200059N0112005N1-01225-01285102385ADDAA101000095GA1999+009144064GA2999+999999999GA3999+999999999GA4999+999999999GD12015+0090099GD20005+9999999GD30005+9999999GD40005+9999999GF101015999999999999999999MA1102301101055MD1310101+9999MW1001REMAWY029310 1500?CON?11/18 11/19 12/6EQDQ01+999990APOSP N01 00000JPWTH 1QNNE11 1 00201E11 1 00000E11 1 00000E11 1 00000G11U1 99999H11 1 15030H11 1 00999H11 1 00999H11 1 00999K11 1 00009L11 1 00700M11 1 29840N11 1 00000Q11 1 10238S11 1 00010V11 1 00101X11 1 00000
011072605014745197401051000D+43200-071500SAO  +0105CON  V0209991C000012200019N0112001N1-01501-01551102351ADDAA101000095GF100991999999999999999999MA1102271101001MW1001REMAWY021?CON?11/18 11/19 12/6EQDQ01+999990APOSP 
011072605014745197401051100D+43200-071500SAO  +0105CON  V0209991C000012200019N0112001N1-01611-01661102351ADDAA101000095GF100991999999999999999999MA1102271101001MW1001REMAWY021?CON?11/18 11/19 12/6EQDQ01+999990APOSP 
050772605014745197401051200C+43200-071500SY-SA+0104CON  V02099959000052200059N0112005N1-01725-01785102425ADDAA101000095AJ100089199999999AY111999GA1999+076204004GA2999+999999999GA3999+999999999GA4999+999999999GD12015+0750099GD20005+9999999GD30005+9999999GD40005+9999999GF101015001001999999001991MA1102341101085MD1310031+9999MW1021REMSYN017  107 90403 43001AWY02690403?CON?11/18 11/19 12/6EQDQ01+000003PRSWM2N01 00000JPWTH 1QNNE11 1 00201E11 1 00000E11 1 00000E11 1 00000G11U1 99999H11 1 32250H11 1 00999H11 1 00999H11 1 00999K11 1 00000L11 1 00700M11 1 29850N11 1 00000Q11 1 10242S11 1 00001V11 1 00101X11 1 00000
012572605014745197401051300D+43200-071500SAO  +0105CON  V0209991C000012200019N0320001N1-01831-01881102491ADDAA101000095GD13991+0750093GF107991999999999999999999MA1102401101141MW1001REMAWY021?CON?11/18 11/19 12/6EQDQ01+999990APOSP 
012572605014745197401051400D+43200-071500SAO  +0105CON  V0209991C000012200019N0320001N1-01551-01661102531ADDAA101000095GD13991+0750093GF107991999999999999999999MA1102441101171MW1001REMAWY021?CON?11/18 11/19 12/6EQDQ01+999990APOSP 
046272605014745197401051500C+43200-071500SAO  +0104CON  V0202305N001552200059N0320005N1-00945-01115102585ADDAA101000095GA1999+076204004GA2999+999999999GA3999+999999999GA4999+999999999GD13065+0750093GD20005+9999999GD30005+9999999GD40005+9999999GF106025999999999999999999MA1102511101255MD1210171+9999MW1001REMAWY029217 1001?CON?11/18 11/19 12/6EQDQ01+999990APOSP N01 00000JPWTH 1QNNE11 1 00307E11 1 00000E11 1 00000E11 1 00000G11U1 99999H11 1 32250H11 1 00999H11 1 00999H11 1 00999K11 1 00012L11 1 02000M11 1 29900N11 1 00000Q11 1 10258S11 1 00015V11 1 00703X11 1 23003
012572605014745197401051600D+43200-071500SAO  +0105CON  V0209991C000012200019N0320001N1-00721-01051102481ADDAA101000095GD13991+0750093GF107991999999999999999999MA1102401101141MW1001REMAWY021?CON?11/18 11/19 12/6EQDQ01+999990APOSP 
017372605014745197401051700D+43200-071500SAO  +0105CON  V0209991C000012200019N0320001N1-00551-01111102301ADDAA101000095GD12991+0750093GF102991999999999999999999MA1102241100971MW1001REMAWY069UA 1700 20N CON MDT TURBC 45 C150?CON?         ?     11/18 11/19 12/6EQDQ01+999990APOSP 
055072605014745197401051800C+43200-071500SY-SA+0104CON  V0202905N002652200059N0320005N1-00445-01115102215ADDAA101000095AJ199999900008099AY111999GA1999+999999084GA2999+076204004GA3999+999999999GA4999+999999999GD11999+0750093GD20025+9999999GD30005+9999999GD40005+9999999GF102015011011008001001991KA1999M-00301KA2999N-01801MA1102131100885MD1710371+9999MW1021REMSYN017  086 90203 42498AWY027FEW CU?CON?11/18 11/19 12/6EQDQ01+000003PRSWM2N01 00000JPWTH 1P01    003SCCGD1QNNE11 1 00100E11 1 00002E11 1 00000E11 1 00000G11U1 99999H11 1 11999H11 1 32250H11 1 00999H11 1 00999K11 1 00012L11 1 02000M11 1 29790N11 1 00000Q11 1 10221S11 1 00024V11 1 00201X11 1 29005
013172605014745197401051900D+43200-071500SAO  +0105CON  V0202901N003612200019N0320001N1-00381-01221102101ADDAA101000095GD12991+0750093GF102991999999999999999999MA1102031100771MW1001REMAWY027FEW CU?CON?11/18 11/19 12/6EQDQ01+999990APOSP 
013372605014745197401052000D+43200-071500SAO  +0105CON  V0202901N004612200019N0320001N1-00381-01271102071ADDAA101000095GD13991+0750093GF107991999999999999999999MA1102001100741MW1001REMAWY029CU QLQDS?CON?11/18 11/19 12/6EQDQ01+999990APOSP 
046272605014745197401052100C+43200-071500SAO  +0104CON  V0202505N003152200059N0320005N1-00445-01175102075ADDAA101000095GA1999+012194064GA2999+076204004GA3999+999999999GA4999+999999999GD12025+0120099GD21025+0750093GD30005+9999999GD40005+9999999GF104025999999999999999999MA1102001100755MD1610141+9999MW1001REMAWY029  4 1501?CON?11/18 11/19 12/6EQDQ01+999990APOSP N01 00000JPWTH 1QNNE11 1 00202E11 1 00103E11 1 00000E11 1 00000G11U1 99999H11 1 15040H11 1 32250H11 1 00999H11 1 00999K11 1 00011L11 1 02000M11 1 29750N11 1 00000Q11 1 10207S11 1 00024V11 1 00502X11 1 25006
012572605014745197401052200D+43200-071500SAO  +0105CON  V0201901N002512200019N0240001N1-00611-01111102131ADDAA101000095GD12991+0750099GF102991999999999999999999MA1102031100771MW1001REMAWY021?CON?11/18 11/19 12/6EQDQ01+999990APOSP 
012572605014745197401052300D+43200-071500SAO  +0105CON  V0201401N002012200019N0112001N1-00831-01051102021ADDAA101000095GD12991+0750093GF102991999999999999999999MA1101931100671MW1001REMAWY021?CON?11/18 11/19 12/6EQDQ01+999990APOSP 
047972605014745197401060000C+43200-071500SY-SA+0104CON  V0202105N001552200059N0112005N1-00835-01115102025ADDAA101000095AY111999GA1999+076204004GA2999+999999999GA3999+999999999GA4999+999999999GD11025+0750093GD20005+9999999GD30005+9999999GD40005+9999999GF102005001001999999001991MA1101931100685MD1610051+9999MW1021REMSYN011  068 42698AWY021?CON?11/18 11/19 12/6EQDQ01+000003PRSWM2N01 00000JPWTH 1QNNE11 1 00102E11 1 00000E11 1 00000E11 1 00000G11U1 99999H11 1 32250H11 1 00999H11 1 00999H11 1 00999K11 1 00012L11 1 00700M11 1 29730N11 1 00000Q11 1 10202S11 1 00017V11 1 00200X11 1 21003
012572605014745197401060100D+43200-071500SAO  +0105CON  V0209991C000012200019N0112001N1-01111-01271102021ADDAA101000095GD12991+0750093GF102991999999999999999999MA1101931100671MW1001REMAWY021?CON?11/18 11/19 12/6EQDQ01+999990APOSP 
012572605014745197401060200D+43200-071500SAO  +0105CON  V0209991C000012200019N0112001N1-01051-01221101991ADDAA101000095GD13991+0660093GF107991999999999999999999MA1101901100641MW1001REMAWY021?CON?11/18 11/19 12/6EQDQ01+999990APOSP 
046272605014745197401060300C+43200-071500SAO  +0104CON  V02099959000052200059N0112005N1-01175-01285101925ADDAA101000095GA1999+060964024GA2999+999999999GA3999+999999999GA4999+999999999GD13065+0600093GD20005+9999999GD30005+9999999GD40005+9999999GF106025999999999999999999MA1101831100585MD1810101+9999MW1001REMAWY029810 1008?CON?11/18 11/19 12/6EQDQ01+999990APOSP N01 00000JPWTH 1QNNE11 1 00307E11 1 00000E11 1 00000E11 1 00000G11U1 99999H11 1 37200H11 1 00999H11 1 00999H11 1 00999K11 1 00009L11 1 00700M11 1 29700N11 1 00000Q11 1 10192S11 1 00011V11 1 00703X11 1 00000
012572605014745197401060400D+43200-071500SAO  +0105CON  V0209991C000012200019N0112001N1-01221-01271101891ADDAA101000095GD13991+0600093GF107991999999999999999999MA1101801100541MW1001REMAWY021?CON?11/18 11/19 12/6EQDQ01+999990APOSP 
012572605014745197401060500D+43200-071500SAO  +0105CON  V0209991C000012200019N0112001N1-01331-01381101821ADDAA101000095GD13991+0600093GF107991999999999999999999MA1101731100471MW1001REMAWY021?CON?11/18 11/19 12/6EQDQ01+999990APOSP 
050572605014745197401060600C+43200-071500SY-SA+0104CON  V02099959000052200059N0112005N1-01335-01335101805ADDAA101000095AY111999GA1999+060964004GA2999+999999999GA3999+999999999GA4999+999999999GD13065+0600093GD20005+9999999GD30005+9999999GD40005+9999999GF106005001001999999001991KA1999M-00201KA2999N-01801MA1101731100475MD1610121+9999MW1021REMSYN011  046 42698AWY021?CON?11/18 11/19 12/6EQDQ01+000003PRSWM2N01 00000JPWTH 1QNNE11 1 00308E11 1 00000E11 1 00000E11 1 00000G11U1 99999H11 1 32200H11 1 00999H11 1 00999H11 1 00999K11 1 00008L11 1 00700M11 1 29670N11 1 00000Q11 1 10180S11 1 00008V11 1 00800X11 1 00000
012572605014745197401060700D+43200-071500SAO  +0105CON  V0209991C000012200019N0112001N1-01611-01721101761ADDAA101000095GD13991+0600093GF107991999999999999999999MA1101691100431MW1001REMAWY021?CON?11/18 11/19 12/6EQDQ01+999990APOSP 
012572605014745197401060800D+43200-071500SAO  +0105CON  V0209991C000012200019N0112001N1-01771-01941101731ADDAA101000095GD13991+0600093GF107991999999999999999999MA1101661100401MW1001REMAWY021?CON?11/18 11/19 12/6EQDQ01+999990APOSP 
046272605014745197401060900C+43200-071500SAO  +0104CON  V02099959000052200059N0112005N1-01615-01675101715ADDAA101000095GA1999+060964004GA2999+999999999GA3999+999999999GA4999+999999999GD13055+0600093GD20005+9999999GD30005+9999999GD40005+9999999GF105005999999999999999999MA1101631100375MD1810101+9999MW1001REMAWY029810 1001?CON?11/18 11/19 12/6EQDQ01+999990APOSP N01 00000JPWTH 1QNNE11 1 00306E11 1 00000E11 1 00000E11 1 00000G11U1 99999H11 1 32200H11 1 00999H11 1 00999H11 1 00999K11 1 00002L11 1 00700M11 1 29640N11 1 00000Q11 1 10171S11 1 00003V11 1 00600X11 1 00000
012572605014745197401061000D+43200-071500SAO  +0105CON  V0209991C00001060001EN0112001N1-01611-01721101631ADDAA101000095GD13991+0600099GF107991999999999999999999MA1101561100301MW1001REMAWY021?CON?11/18 11/19 12/6EQDQ01+999990APOSP 
012572605014745197401061100D+43200-071500SAO  +0105CON  V0209991C00001060001EN0112001N1-01611-01721101601ADDAA101000095GD13991+0600099GF107991999999999999999999MA1101521100271MW1001REMAWY021?CON?11/18 11/19 12/6EQDQ01+999990APOSP 
053372605014745197401061200C+43200-071500SY-SA+0104CON  V0209995900005060964EN0112005N1-01615-01725101575ADDAA101000095AJ100089199999999AY121999GA1999+060964024GA2999+999999999GA3999+999999999GA4999+999999999GD14085+0600099GD20005+9999999GD30005+9999999GD40005+9999999GF108075001001999999001991KA1999M-00201KA2999N-01701MA1101491100245MD1710141+9999MW1021REMSYN017  022 90403 42600AWY02690403?CON?11/18 11/19 12/6EQDQ01+000003PRSWM2N01 00000JPWTH 1QNNE11 1 00610E11 1 00000E11 1 00000E11 1 00000G11 1 00200H11 1 37200H11 1 00999H11 1 00999H11 1 00999K11 1 00001L11 1 00700M11 1 29600N11 1 00000Q11 1 10157S11 1 00003V11 1 01009X11 1 00000
014072605014745197401061300D+43200-071500SAO  +0105CON  V0209991C000010600019N0320001N1-01501-01611101621ADDAA101000095GD12991+0300099GD24991+0600099GF108991999999999999999999MA1101521100271MW1001REMAWY021?CON?11/18 11/19 12/6EQDQ01+999990APOSP 
014672605014745197401061400D+43200-071500SAO  +0105CON  V0209991C00001030001EN0320001N1-01331-01551101651ADDAA101000095GD13991+0300099GD24991+0600099GF108991999999999999999999MA1101561100301MW1001REMAWY027BINOVC?CON?11/18 11/19 12/6EQDQ01+999990APOSP 
040872605014745197401061500C+43200-071500SAO  +0104CON  V0209995900005030484EN0320005N1-01065-01115101725ADDAA101000095GA1999+030484034GA2999+060964024GD13055+0300099GD24035+0600099GD30995+9999999GD40995+9999999GF108085999999999999999999MA1101631100375MD1210151+9999MW1001REMAWY029215 1077?CON?11/18 11/19 12/6EQDQ01+999990APOSP N01 00000JPWTH 1QNNE11 1 00406E11 1 00604E11 1 00099E11 1 00099G11 1 00100H11 1 23100H11 1 37200K11 1 00012L11 1 02000M11 1 29640N11 1 00000Q11 1 10172S11 1 00013V11 1 01010X11 1 00000
014672605014745197401061600D+43200-071500SAO  +0105CON  V0209991C00001030001EN0320001N1-00721-01001101581ADDAA101000095GD13991+0300099GD24991+0600099GF108991999999999999999999MA1101491100231MW1001REMAWY027BINOVC?CON?11/18 11/19 12/6EQDQ01+999990APOSP 
012572605014745197401061700D+43200-071500SAO  +0105CON  V0209991C00001030001EN0320001N1-00551-00881101481ADDAA101000095GD14991+0300099GF108991999999999999999999MA1101391100131MW1001REMAWY021?CON?11/18 11/19 12/6EQDQ01+999990APOSP 
047372605014745197401061800C+43200-071500SY-SA+0104CON  V0202605N00155030484EN0320005N1-00395-00835101405ADDAA101000095AY121999GA1999+030484034GA2999+060964024GD13055+0300099GD24035+0600099GD30995+9999999GD40995+9999999GF108085051001999999071991KA1999M-00301KA2999N-01701MA1101321100075MD1710301+9999MW1021REMSYN011  007 42500AWY027BINOVC?CON?11/18 11/19 12/6EQDQ01+000072SCOTCVQ02+000003PRSWM2N01 00000JPWTH 1QNNE11 1 00406E11 1 00604E11 1 00099E11 1 00099G11 1 00100H11 1 23100H11 1 37200K11 1 00017L11 1 02000M11 1 29550N11 1 00000Q11 1 10140S11 1 00025V11 1 01010X11 1 26003
014072605014745197401061900D+43200-071500SAO  +0105CON  V0209991C00001030001EN0320001N1-00331-00831101331ADDAA101000095GD13991+0300099GD24991+0600099GF108991999999999999999999MA1101251100001MW1001REMAWY021?CON?11/18 11/19 12/6EQDQ01+999990APOSP 
015572605014745197401062000D+43200-071500SAO  +0105CON  V0209991C000010300019N0320001N1-00271-00771101331ADDAA101000095GD12991+0150099GD23991+0300099GD34991+0600099GF108991999999999999999999MA1101251100001MW1001REMAWY021?CON?11/18 11/19 12/6EQDQ01+999990APOSP 
046272605014745197401062100C+43200-071500SAO  +0104CON  V02099959000050304849N0320005N1-00225-00835101275ADDAA101000095GA1999+015244064GA2999+030484034GA3999+060964004GA4999+999999999GD12025+0150099GD23045+0300099GD33025+0600099GD40005+9999999GF107065999999999999999999MA1101191099935MD1810101+9999MW1001REMAWY029810 1578?CON?11/18 11/19 12/6EQDQ01+999990APOSP N01 00000JPWTH 1QNNE11 1 00202E11 1 00405E11 1 00403E11 1 00000G11 1 00100H11 1 15050H11 1 23100H11 1 32200H11 1 00999K11 1 00017L11 1 02000M11 1 29510N11 1 00000Q11 1 10127S11 1 00028V11 1 00908X11 1 00000
014072605014745197401062200D+43200-071500SAO  +0105CON  V0209991C000010240019N0240001N1-00221-00771101201ADDAA101000095GD12991+0150099GD24991+0240099GF108991999999999999999999MA1101121099861MW1001REMAWY021?CON?11/18 11/19 12/6EQDQ01+999990APOSP 
014072605014745197401062300D+43200-071500SAO  +0105CON  V0209991C00001015001EN0112001N1-00441-00611101201ADDAA101000095GD13991+0150099GD24991+0240099GF108991999999999999999999MA1101121099861MW1001REMAWY021?CON?11/18 11/19 12/6EQDQ01+999990APOSP 
042472605014745197401070000C+43200-071500SY-SA+0104CON  V0209995900005009754MN0112005N1-00445-00675101205ADDAA101000095AY121999GA1999+009754064GD14085+0096099GD20995+9999999GD30995+9999999GD40995+9999999GF108085081051008001999999KA1999M-00101KA2999N-01701MA1101121099865MD1610071+9999MW1031REMSYN01169987 42900AWY021?CON?11/18 11/19 12/6EQDQ01+000003PRSWM2N01 00000JPWTH 1QNNE11 1 00610E11 1 00099E11 1 00099E11 1 00099G11 1 00032H11 1 15032K11 1 00020L11 1 00700M11 1 29490N11 1 00000Q11 1 10120S11 1 00024V11 1 01010X11 1 00000
012972605014745197401070100D+43200-071500SAO  +0105CON  V0209991C000010096019N0064001N1-00441-00611101231ADDAA101000095GD14991+0096099GF108991999999999999999999MA1101151099901MW1711REMAWY025SB40?CON?11/18 11/19 12/6EQDQ01+999990APOSP 
014072605014745197401070200D+43200-071500SAO  +0105CON  V0209991C00001009601MN0112001N1-00331-00721101161ADDAA101000095GD13991+0096099GD24991+0300099GF108991999999999999999999MA1101081099831MW1701REMAWY021?CON?11/18 11/19 12/6EQDQ01+999990APOSP 
041372605014745197401070300C+43200-071500SAO  +0104CON  V02099959000050304849N0112005N1-00395-00725101165ADDAA101000095GA1999+009754064GA2999+030484034GD12035+0096099GD24055+0300099GD30995+9999999GD40995+9999999GF108085999999999999999999MA1101081099835MD1610031+9999MW1001REMAWY034SE20/603 157/?CON?11/18 11/19 12/6EQDQ01+999990APOSP N01 00000JPWTH 1QNNE11 1 00204E11 1 00606E11 1 00099E11 1 00099G11 1 00100H11 1 15032H11 1 23100K11 1 00019L11 1 00700M11 1 29480N11 1 00000Q11 1 10116S11 1 00025V11 1 01010X11 1 00000
014072605014745197401070400D+43200-071500SAO  +0105CON  V0209991C000010210019N0112001N1-00441-00661101161ADDAA101000095GD12991+0096099GD24991+0210099GF108991999999999999999999MA1101081099831MW1001REMAWY021?CON?11/18 11/19 12/6EQDQ01+999990APOSP 
016072605014745197401070500D+43200-071500SAO  +0105CON  V0209999999999021001EN0112001N1-00611-00661101061ADDAA101000095GD14991+0210099GF108991999999999999999999MA1100981099741MW1001REMAWY024983?CON?11/18 11/19 12/6EQDQ01+030003APOA  Q02+999990APOSP Q03+999990APOA  
035972605014745197401070600C+43200-071500SAO  +0104CON  V0209995900005009754MN0112005N1-00675-00675101045ADDAA101000095GA1999+009754064GD14085+0096099GD20995+9999999GD30995+9999999GD40995+9999999GF108085999999999999999999MA1100981099735MW1001REMAWY021?CON?11/18 11/19 12/6EQDQ01+999990APOSP N01 00000JPWTH 1QNNE11 1 00610E11 1 00099E11 1 00099E11 1 00099G11 1 00032H11 1 15032K11 1 00020L11 1 00700M11 1 29450N11 1 00000Q11 1 10104S11 1 00020V11 1 01010X11 1 00000
012572605014745197401070700D+43200-071500SAO  +0105CON  V0209991C00001013501EN0112001N1-00661-00661101071ADDAA101000095GD14991+0135099GF108991999999999999999999MA1101021099761MW1001REMAWY021?CON?11/18 11/19 12/6EQDQ01+999990APOSP 
012572605014745197401070800D+43200-071500SAO  +0105CON  V0209991C000012200019N0112001N1-00831-00831101041ADDAA101000095GD12991+0750093GF102991999999999999999999MA1100981099731MW1001REMAWY021?CON?11/18 11/19 12/6EQDQ01+999990APOSP 
046272605014745197401070900C+43200-071500SAO  +0104CON  V02099959000052200059N0112005N1-00945-00945100975ADDAA101000095GA1999+030484034GA2999+999999999GA3999+999999999GA4999+999999999GD12025+0300099GD20005+9999999GD30005+9999999GD40005+9999999GF102025999999999999999999MA1100911099665MD1810071+9999MW1001REMAWY029807 1030?CON?11/18 11/19 12/6EQDQ01+999990APOSP N01 00000JPWTH 1QNNE11 1 00203E11 1 00000E11 1 00000E11 1 00000G11U1 99999H11 1 23100H11 1 00999H11 1 00999H11 1 00999K11 1 00015L11 1 00700M11 1 29430N11 1 00000Q11 1 10097S11 1 00015V11 1 00303X11 1 00000
011072605014745197401071000D+43200-071500SAO  +0105CON  V0209991C000012200019N0112001N1-01221-01221100971ADDAA101000095GF100991999999999999999999MA1100911099661MW1001REMAWY021?CON?11/18 11/19 12/6EQDQ01+999990APOSP 
011072605014745197401071100D+43200-071500SAO  +0105CON  V0209991C000012200019N0112001N1-01381-01441101021ADDAA101000095GF100991999999999999999999MA1100951099701MW1001REMAWY021?CON?11/18 11/19 12/6EQDQ01+999990APOSP 
054172605014745197401071200C+43200-071500SY-SA+0104CON  V02099959000052200059N0112005N1-01445-01505101025ADDAA101000095AJ100089199999999AY111999GA1999+030484034GA2999+999999999GA3999+999999999GA4999+999999999GD12025+0300099GD20005+9999999GD30005+9999999GD40005+9999999GF102025021001999999031991KA1999M-00101KA2999N-01501MA1100951099705MD1110031+9999MW1021REMSYN02469970 90403 42903 200056AWY02790403 ?CON?11/18 11/19 12/6EQDQ01+000003PRSWM2N01 00000JPWTH 1QNNE11 1 00203E11 1 00000E11 1 00000E11 1 00000G11U1 99999H11 1 23100H11 1 00999H11 1 00999H11 1 00999K11 1 00005L11 1 00700M11 1 29440N11 1 00000Q11 1 10102S11 1 00006V11 1 00303X11 1 00000
012572605014745197401071300D+43200-071500SAO  +0105CON  V0209991C000012200019N0240001N1-01551-01611101101ADDAA101000095GD12991+0300099GF102991999999999999999999MA1101021099761MW1001REMAWY021?CON?11/18 11/19 12/6EQDQ01+999990APOSP 
012572605014745197401071400D+43200-071500SAO  +0105CON  V0209991C000012200019N0240001N1-01221-01441101101ADDAA101000095GD12991+0300099GF102991999999999999999999MA1101021099761MW1001REMAWY021?CON?11/18 11/19 12/6EQDQ01+999990APOSP 
046272605014745197401071500C+43200-071500SAO  +0104CON  V02099959000052200059N0240005N1-00835-01175101195ADDAA101000095GA1999+030484034GA2999+999999999GA3999+999999999GA4999+999999999GD12015+0300099GD20005+9999999GD30005+9999999GD40005+9999999GF101015999999999999999999MA1101121099865MD1210171+9999MW1001REMAWY029217 1070?CON?11/18 11/19 12/6EQDQ01+999990APOSP N01 00000JPWTH 1QNNE11 1 00201E11 1 00000E11 1 00000E11 1 00000G11U1 99999H11 1 23100H11 1 00999H11 1 00999H11 1 00999K11 1 00011L11 1 01500M11 1 29490N11 1 00000Q11 1 10119S11 1 00017V11 1 00101X11 1 00000
011372605014745197401071600D+43200-071500SAO  +0105CON  V0202301N004612200019N0240001N1-00331-00771101091ADDAA101000095GF100991999999999999999999MA1101021099761MW1001REMAWY024AC2?CON?11/18 11/19 12/6EQDQ01+999990APOSP 
014072605014745197401071700D+43200-071500SAO  +0105CON  V0202301N005112200019N0320001N1-00161-00831100981ADDAA101000095GD12991+0090099GD22991+0300099GF102991999999999999999999MA1100911099661MW1001REMAWY021?CON?11/18 11/19 12/6EQDQ01+999990APOSP 
049672605014745197401071800C+43200-071500SY-SA+0104CON  V0202405N005250304849N0320005N1-00175-00895100915ADDAA101000095AJ199999900008099AY111999GA1999+009144064GA2999+030484034GD12025+0090099GD24065+0300099GD30995+9999999GD40995+9999999GF108085021051008001071999KA1999M-00101KA2999N-01501MA1100851099595MD1710271+9999MW1021REMSYN01769960 90203 42903AWY027BINOVCFCON?11/18 11/19 12/6EQDQ01+000072SCOTCVQ02+000003PRSWM2N01 00000JPWTH 1QNNE11 1 00203E11 1 00607E11 1 00099E11 1 00099G11 1 00100H11 1 15030H11 1 23100K11 1 00016L11 1 02000M11 1 29410N11 1 00000Q11 1 10091S11 1 00029V11 1 01010X11 1 24010
014072605014745197401071900D+43200-071500SAO  +0105CON  V0202301N00611009001EN0320001N1-00161-00881100911ADDAA101000095GD13991+0090099GD23991+0300099GF107991999999999999999999MA1100851099601MW1001REMAWY021?CON?11/18 11/19 12/6EQDQ01+999990APOSP 
014072605014745197401072000D+43200-071500SAO  +0105CON  V0202401N00361010501EN0320001N1-00111-00881100911ADDAA101000095GD13991+0105099GD23991+0300099GF107991999999999999999999MA1100851099601MW1001REMAWY021?CON?11/18 11/19 12/6EQDQ01+999990APOSP 
040872605014745197401072100C+43200-071500SAO  +0104CON  V0202705N00315010674EN0320005N1-00115-00945100915ADDAA101000095GA1999+010674064GA2999+030484034GD13065+0105099GD24025+0300099GD30995+9999999GD40995+9999999GF108085999999999999999999MA1100851099595MD1410001+9999MW1001REMAWY029400 157/?CON?11/18 11/19 12/6EQDQ01+999990APOSP N01 00000JPWTH 1QNNE11 1 00407E11 1 00603E11 1 00099E11 1 00099G11 1 00035H11 1 15035H11 1 23100K11 1 00015L11 1 02000M11 1 29410N11 1 00000Q11 1 10091S11 1 00030V11 1 01010X11 1 27006
014072605014745197401072200D+43200-071500SAO  +0105CON  V0202601N004112200019N0320001N1-00161-00881100941ADDAA101000095GD12991+0105099GD22991+0300099GF102991999999999999999999MA1100881099631MW1001REMAWY021?CON?11/18 11/19 12/6EQDQ01+999990APOSP 
012572605014745197401072300D+43200-071500SAO  +0105CON  V0202901N004112200019N0112001N1-00271-01001100981ADDAA101000095GD12991+0105099GF102991999999999999999999MA1100911099661MW1001REMAWY021?CON?11/18 11/19 12/6EQDQ01+999990APOSP 
049272605014745197401080000C+43200-071500SY-SA+0104CON  V0202705N003652200059N0112005N1-00395-01005101025ADDAA101000095AY121999GA1999+010674064GA2999+999999999GA3999+999999999GA4999+999999999GD12025+0105099GD20005+9999999GD30005+9999999GD40005+9999999GF102025021051012501001991KA1999N-01501MA1100951099705MD1210101+9999MW1021REMSYN01169970 43003AWY021?CON?11/18 11/19 12/6EQDQ01+000003PRSWM2N01 00000JPWTH 1QNNE11 1 00203E11 1 00000E11 1 00000E11 1 00000G11U1 99999H11 1 15035H11 1 00999H11 1 00999H11 1 00999K11 1 00014L11 1 00700M11 1 29440N11 1 00000Q11 1 10102S11 1 00025V11 1 00303X11 1 27007
012572605014745197401080100D+43200-071500SAO  +0105CON  V0202401N004112200019N0112001N1-00441-01001101021ADDAA101000095GD12991+0105099GF102991999999999999999999MA1100951099701MW1001REMAWY021?CON?11/18 11/19 12/6EQDQ01+999990APOSP 
012572605014745197401080200D+43200-071500SAO  +0105CON  V0202601N00301010501EN0112001N1-00331-01051101101ADDAA101000095GD13991+0105099GF107991999999999999999999MA1101021099761MW1001REMAWY021?CON?11/18 11/19 12/6EQDQ01+999990APOSP 
046272605014745197401080300C+43200-071500SAO  +0104CON  V0202805N004152200059N0112005N1-00395-01225101165ADDAA101000095GA1999+010674064GA2999+999999999GA3999+999999999GA4999+999999999GD12035+0105099GD20005+9999999GD30005+9999999GD40005+9999999GF103035999999999999999999MA1101081099835MD1310141+9999MW1001REMAWY029314 1500?CON?11/18 11/19 12/6EQDQ01+999990APOSP N01 00000JPWTH 1QNNE11 1 00204E11 1 00000E11 1 00000E11 1 00000G11U1 99999H11 1 15035H11 1 00999H11 1 00999H11 1 00999K11 1 00010L11 1 00700M11 1 29480N11 1 00000Q11 1 10116S11 1 00025V11 1 00404X11 1 28008
012572605014745197401080400D+43200-071500SAO  +0105CON  V0202801N006112200019N0112001N1-00441-01271101231ADDAA101000095GD12991+0120099GF102991999999999999999999MA1101151099901MW1001REMAWY021?CON?11/18 11/19 12/6EQDQ01+999990APOSP 
012572605014745197401080500D+43200-071500SAO  +0105CON  V0202701N005112200019N0112001N1-00501-01271101221ADDAA101000095GD12991+0120099GF102991999999999999999999MA1101151099901MW1001REMAWY021?CON?11/18 11/19 12/6EQDQ01+999990APOSP 
049272605014745197401080600C+43200-071500SY-SA+0104CON  V0202705N002652200059N0112005N1-00565-01225101285ADDAA101000095AY111999GA1999+012194064GA2999+999999999GA3999+999999999GA4999+999999999GD12025+0120099GD20005+9999999GD30005+9999999GD40005+9999999GF102025021051012501001991KA1999N-01501MA1101221099975MD1210141+9999MW1021REMSYN01169997 43003AWY021?CON?11/18 11/19 12/6EQDQ01+000003PRSWM2N01 00000JPWTH 1QNNE11 1 00203E11 1 00000E11 1 00000E11 1 00000G11U1 99999H11 1 15040H11 1 00999H11 1 00999H11 1 00999K11 1 00010L11 1 00700M11 1 29520N11 1 00000Q11 1 10128S11 1 00022V11 1 00303X11 1 27005
012572605014745197401080700D+43200-071500SAO  +0105CON  V0202901N004612200019N0112001N1-00611-01111101421ADDAA101000095GD12991+0120099GF102991999999999999999999MA1101351100101MW1001REMAWY021?CON?11/18 11/19 12/6EQDQ01+999990APOSP 
012572605014745197401080800D+43200-071500SAO  +0105CON  V0202901N005112200019N0112001N1-00771-01271101521ADDAA101000095GD12991+0120099GF102991999999999999999999MA1101461100201MW1001REMAWY021?CON?11/18 11/19 12/6EQDQ01+999990APOSP 
023172605014745197401080900C+43200-071500SAO  +0104CON  V0202905N007252200059N0112005N1-00835-01615101605ADDAA101000095GF100005999999999999999999MA1101561100305MW1001REMAWY024232?CON?11/18 11/19 12/6EQDQ01+999990APOSP N01 00000JPWTH 1QNNG11U1 99999K11 1 00003L11 1 00700M11 1 29620N11 1 00000Q11 1 10160S11 1 00017V11 1 00000X11 1 29014
011072605014745197401081000D+43200-071500SAO  +0105CON  V0202901N003012200019N0112001N1-00881-01771101671ADDAA101000095GF100991999999999999999999MA1101631100371MW1001REMAWY021?CON?11/18 11/19 12/6EQDQ01+999990APOSP 
011472605014745197401081100D+43200-071500SAO  +0105CON  V0202701N005612200019N0112001N1-00941-01831101761ADDAA101000095GF100991999999999999999999MA1101691100431MW1001REMAWY025?CON?11/18 11/19 12/6 1/2EQDQ01+999990APOSP 
049172605014745197401081200C+43200-071500SY-SA+0104CON  V0202705N00725220005CN0112005N9-00945-01785101905ADDAA101000095AJ100089199999999AY101999GA1999+999999064GA2999+999999999GA3999+999999999GA4999+999999999GD10005+9999999GD20005+9999999GD30005+9999999GD40005+9999999GF199009011051012501001991MA1101831100585MD1210271+9999MW1021REMSYN017  056 90403 43015EQDQ01+999990APOA  N01 00000JPWTH 1P01    003SCOTCVQNNE11 1 00000E11 1 00000E11 1 00000E11 1 00000G11U1 99999H11 1 15999H11 1 00999H11 1 00999H11 1 00999K11 1 00000L11 1 00700M11 1 29700N11 1 00000Q11 1 10190S11 1 00015V11 1 00000X11 1 27014
012872605014745197401081300D+43200-071500SAO  +0105CON  V0202801N006612200019N0320001N1-01001-01831102101ADDAA101000095GF100991999999999999999999MA1102031100771MW1001OC100921REMAWY031PRESRR?CON?11/18 11/19 12/6 1/2EQDQ01+999990APOSP 
012272605014745197401081400D+43200-071500SAO  +0105CON  V0203001N007212200019N0320001N1-01001-01721102281ADDAA101000095GF100991999999999999999999MA1102201100941MW1001OC101021REMAWY025?CON?11/18 11/19 12/6 1/2EQDQ01+999990APOSP 
045172605014745197401081500C+43200-071500SAO  +0104CON  V0203205N006252200059N0320005N1-00945-01785102365ADDAA101000095GA1999+999999064GA2999+999999999GA3999+999999999GA4999+999999999GD10005+9999999GD20005+9999999GD30005+9999999GF100005999999999999999999MA1102301101025MD1110461+9999MW1001REMAWY033146 1500?CON?11/18 11/19 12/6 1/2EQDQ01+999990APOSP N01 00000JPWTH 1QNNE11 1 00000E11 1 00000E11 1 00000E11 1 00000G11U1 99999H11 1 15999H11 1 00999H11 1 00999H11 1 00999K11 1 00000L11 1 02000M11 1 29830N11 1 00000Q11 1 10236S11 1 00015V11 1 00000X11 1 32012
011472605014745197401081600D+43200-071500SAO  +0105CON  V0203101N006112200019N0320001N1-00881-01881102381ADDAA101000095GF100991999999999999999999MA1102301101041MW1001REMAWY025?CON?11/18 11/19 12/6 1/2EQDQ01+999990APOSP 
012272605014745197401081700D+43200-071500SAO  +0105CON  V0203001N006112200019N0320001N1-00831-02001102391ADDAA101000095GF100991999999999999999999MA1102341101071MW1001OC100921REMAWY025?CON?11/18 11/19 12/6 1/2EQDQ01+999990APOSP 
053472605014745197401081800C+43200-071500SY-SA+0104CON  V0203005N007252200059N0320005N1-00835-02115102425ADDAA101000095AY101999GA1999+999999064GA2999+999999999GA3999+999999999GA4999+999999999GD10005+9999999GD20005+9999999GD30005+9999999GF199009011051012501001991KA1999M-00501KA2999N-00901MA1102341101085MD1210051+9999MW1021OC101021REMSYN011  108 42214AWY025?CON?11/18 11/19 12/6 1/2EQDQ01+000002SCOTCVQ02+000003PRSWM2N01 00000JPWTH 1P01    003SCOTCVQNNE11 1 00000E11 1 00000E11 1 00000E11 1 00000G11U1 99999H11 1 15999H11 1 00999H11 1 00999H11 1 00999K11 1-00006L11 1 02000M11 1 29850N11 1 00000Q11 1 10242S11 1 00017V11 1 00000X11 1 30014
011472605014745197401081900D+43200-071500SAO  +0105CON  V0203001N006112200019N0320001N1-00831-02221102501ADDAA101000095GF100991999999999999999999MA1102441101171MW1001REMAWY025?CON?11/18 11/19 12/6 1/2EQDQ01+999990APOSP 
012272605014745197401082000D+43200-071500SAO  +0105CON  V0203101N007712200019N0320001N1-00881-02221102641ADDAA101000095GF100991999999999999999999MA1102571101311MW1001OC101081REMAWY025?CON?11/18 11/19 12/6 1/2EQDQ01+999990APOSP 
023972605014745197401082100C+43200-071500SAO  +0104CON  V0203105N007252200059N0320005N1-00895-02445102805ADDAA101000095GF100005999999999999999999MA1102741101465MW1001OC101181REMAWY024239?CON?11/18 11/19 12/6EQDQ01+999990APOSP N01 00000JPWTH 1QNNG11U1 99999K11 1-00012L11 1 02000M11 1 29960N11 1 00000Q11 1 10280S11 1 00016V11 1 00000X11 1 31014
011072605014745197401082200D+43200-071500SAO  +0105CON  V0203001N006612200019N0112001N1-01001-02501102901ADDAA101000095GF100991999999999999999999MA1102841101571MW1001REMAWY021?CON?11/18 11/19 12/6EQDQ01+999990APOSP 
011072605014745197401082300D+43200-071500SAO  +0105CON  V0203201N003012200019N0112001N1-01111-02501103041ADDAA101000095GF100991999999999999999999MA1102981101711MW1001REMAWY021?CON?11/18 11/19 12/6EQDQ01+999990APOSP 
028072605014745197401090000C+43200-071500SY-SA+0104CON  V0203405N003652200059N0112005N1-01225-02565103115ADDAA101000095AY101999GF100005001001999999001991KA1999M-00701MA1103051101765MD1210301+9999MW1021REMSYN011  176 41710AWY021?CON?11/18 11/19 12/6EQDQ01+000003PRSWM2N01 00000JPWTH 1QNNG11U1 99999K11 1-00014L11 1 00700M11 1 30050N11 1 00000Q11 1 10311S11 1 00010V11 1 00000X11 1 34007
011072605014745197401090100D+43200-071500SAO  +0105CON  V0203101N002512200019N0112001N1-01441-02551103181ADDAA101000095GF100991999999999999999999MA1103121101841MW1001REMAWY021?CON?11/18 11/19 12/6EQDQ01+999990APOSP 
011072605014745197401090200D+43200-071500SAO  +0105CON  V0209991C000012200019N0112001N1-01501-02611103221ADDAA101000095GF100991999999999999999999MA1103151101881MW1001REMAWY021?CON?11/18 11/19 12/6EQDQ01+999990APOSP 
023172605014745197401090300C+43200-071500SAO  +0104CON  V02099959000052200059N0112005N1-01675-02335103265ADDAA101000095GF100005999999999999999999MA1103181101905MW1001REMAWY024214?CON?11/18 11/19 12/6EQDQ01+999990APOSP N01 00000JPWTH 1QNNG11U1 99999K11 1-00010L11 1 00700M11 1 30090N11 1 00000Q11 1 10326S11 1 00002V11 1 00000X11 1 00000
012572605014745197401090400D+43200-071500SAO  +0105CON  V0209991C000012200019N0112001N1-01941-02551103261ADDAA101000095GD13991+0750093GF107991999999999999999999MA1103181101911MW1001REMAWY021?CON?11/18 11/19 12/6EQDQ01+999990APOSP 
012572605014745197401090500D+43200-071500SAO  +0105CON  V0209991C000012200019N0112001N1-02051-02551103251ADDAA101000095GD13991+0750093GF107991999999999999999999MA1103151101881MW1001REMAWY021?CON?11/18 11/19 12/6EQDQ01+999990APOSP 
050572605014745197401090600C+43200-071500SY-SA+0104CON  V02099959000052200059N0112005N1-01785-02335103195ADDAA101000095AY111999GA1999+042674034GA2999+076204004GA3999+999999999GA4999+999999999GD12025+0420099GD22025+0750099GD30005+9999999GD40005+9999999GF104025021001999999031991KA1999M-00501KA2999N-02001MA1103081101835MD1810081+9999MW1021REMSYN011  181 42295AWY021?CON?11/18 11/19 12/6EQDQ01+000003PRSWM2N01 00000JPWTH 1QNNE11 1 00203E11 1 00202E11 1 00000E11 1 00000G11U1 99999H11 1 23140H11 1 32250H11 1 00999H11 1 00999K11 1-00010L11 1 00700M11 1 30070N11 1 00000Q11 1 10319S11 1 00000V11 1 00503X11 1 00000
012572605014745197401090700D+43200-071500SAO  +0105CON  V0209991C000012200019N0112001N1-01611-02381103281ADDAA101000095GD14991+0750093GF108991999999999999999999MA1103181101911MW1001REMAWY021?CON?11/18 11/19 12/6EQDQ01+999990APOSP 
014072605014745197401090800D+43200-071500SAO  +0105CON  V0200501N00201030001EN0112001N1-01611-02331103281ADDAA101000095GD13991+0300099GD24991+0750099GF108991999999999999999999MA1103181101911MW1001REMAWY021?CON?11/18 11/19 12/6EQDQ01+999990APOSP 
038172605014745197401090900C+43200-071500SAO  +0104CON  V0209995900005030484EN0112005N1-01615-02335103215ADDAA101000095GA1999+030484044GD14085+0300099GD20995+9999999GD30995+9999999GD40995+9999999GF108085999999999999999999MA1103121101865MD1010031+9999MW1001REMAWY029003 102/?CON?11/18 11/19 12/6EQDQ01+999990APOSP N01 00000JPWTH 1QNNE11 1 00610E11 1 00099E11 1 00099E11 1 00099G11 1 00100H11 1 21100K11 1-00010L11 1 00700M11 1 30080N11 1 00000Q11 1 10321S11 1 00003V11 1 01010X11 1 00000
012572605014745197401091000D+43200-071500SAO  +0105CON  V0209991C00001021001EN0112001N1-01551-02441103081ADDAA101000095GD14991+0210099GF108991999999999999999999MA1102981101711MW1001REMAWY021?CON?11/18 11/19 12/6EQDQ01+999990APOSP 
012572605014745197401091100D+43200-071500SAO  +0105CON  V0209991C00001015001EN0112001N1-01551-02381102981ADDAA101000095GD14991+0150099GF108991999999999999999999MA1102881101611MW1001REMAWY021?CON?11/18 11/19 12/6EQDQ01+999990APOSP 
043472605014745197401091200C+43200-071500SY-SA+0104CON  V0203405N00155001834WN0032005N1-01615-02065102985ADDAA101000395AL10699999AY111999GA1999+001834104GD15085+0018099GD20995+9999999GD30995+9999999GD40995+9999999GF108085091999999999999999KA1999M-00401KA2999N-02001MA1102881101635MD1610241+9999MW1715REMSYN017  161 70013 42395AWY031SB04 90403?CON?11/18 11/19 12/6EQDN01 04000JPWTH 1QNNE11 1 00710E11 1 00099E11 1 00099E11 1 00099G11 1 00006H11 1 98006K11 1-00005L11 1 00200M11 1 30010N11 1 04000Q11 1 10298S11 1 00003V11 1 01010X11 1 34003
012572605014745197401091300D+43200-071500SAO  +0105CON  V0209991C00001001501WN0016001N1-01611-01831102931ADDAA101000595GD15991+0015099GF109991999999999999999999MA1102841101571MW1711REMAWY021?CON?11/18 11/19 12/6EQDQ01+999990APOSP 
0114726050147451974010913114+43200-071500SAOSP+0105CON  V0209991C00001001201WN0012001N1+99999+99999999999ADDGD15991+0012099GF109991999999999999999999MA1102841101571MW1711REMAWY021?CON?11/18 11/19 12/6EQDQ01+999990APOSP 
036272605014745197401091500C+43200-071500SAO  +0104CON  V0200305N00315001224WN0013005N1-01445-01615102765ADDAA101000595GA1999+001224104GD15085+0012099GD20995+9999999GD30995+9999999GD40995+9999999GF108085999999999999999999MA1102681101395MW1715REMAWY024822?CON?11/18 11/19 12/6EQDQ01+999990APOSP N01 04000JPWTH 1QNNE11 1 00710E11 1 00099E11 1 00099E11 1 00099G11 1 00004H11 1 98004K11 1 00003L11 1 00081M11 1 29940N11 1 04000Q11 1 10276S11 1 00006V11 1 01010X11 1 03006
012572605014745197401091600D+43200-071500SAO  +0105CON  V0209991C00001000901WN0008001N1-01441-01611102631ADDAA101001095GD15991+0009099GF109991999999999999999999MA1102541101271MW1731REMAWY021?CON?11/18 11/19 12/6EQDQ01+999990APOSP 
012572605014745197401091700D+43200-071500SAO  +0105CON  V0200201N00251000901WN0008001N1-01441-01551102491ADDAA101001395GD15991+0009099GF109991999999999999999999MA1102401101141MW1731REMAWY021?CON?11/18 11/19 12/6EQDQ01+999990APOSP 
050872605014745197401091800C+43200-071500SY-SA+0104CON  V0203405N00155001224WN0013005N1-01335-01445102445ADDAA101000595AA206005091AA324005091AJ100239100013099AL10699999AY171999GA1999+001224104GD15085+0012099GD20995+9999999GD30995+9999999GD40995+9999999GF108085091999999999999999KA1999M-01201KA2999N-02001MA1102341101085MD1610321+9999MW1715REMSYN041  107 71878 90105 90205 90409 20018 40895AWY02690409?CON?11/18 11/19 12/6EQDQ01  00503PRCP99N01 04000JPWTH 1QNNE11 1 00710E11 1 00099E11 1 00099E11 1 00099G11 1 00004H11 1 98004K11 1 00006L11 1 00081M11 1 29850N11 1 04000Q11 1 10244S11 1 00008V11 1 01010X11 1 34003
012572605014745197401091900D+43200-071500SAO  +0105CON  V0203501N00251001501WN0020001N1-01271-01381102371ADDAA101000595GD15991+0015099GF109991999999999999999999MA1102271101001MW1711REMAWY021?CON?11/18 11/19 12/6EQDQ01+999990APOSP 
012572605014745197401092000D+43200-071500SAO  +0105CON  V0200101N00201007501EN0048001N1-01161-01221102351ADDAA101000595GD13991+0075099GF107991999999999999999999MA1102271101001MW1711REMAWY021?CON?11/18 11/19 12/6EQDQ01+999990APOSP 
042272605014745197401092100C+43200-071500SAO  +0104CON  V0203005N00215009144EN0160005N1-01175-01225102365ADDAA101000095AA206001091GA1999+009144064GD14085+0090099GD20995+9999999GD30995+9999999GD40995+9999999GF108085999999999999999999MA1102271101025MD1610071+9999MW1701MW2715REMAWY03760704 15//?CON?11/18 11/19 12/     ?6EQDQ01+999990APOSP Q02  00103PRCP99N01 04000JPWTH 1QNNE11 1 00610E11 1 00099E11 1 00099E11 1 00099G11 1 00030H11 1 15030K11 1 00010L11 1 01000M11 1 29830N11 1 04000Q11 1 10236S11 1 00011V11 1 01010X11 1 30004
013672605014745197401092200D+43200-071500SAO  +0105CON  V0203101N00301009001EN0112001N1-01221-01331102411ADDAA101000095GD14991+0090099GF108991999999999999999999MA1102341101071MW1001REMAWY032SE04 BINOVC?CON?11/18 11/19 12/6EQDQ01+999990APOSP 
012572605014745197401092300D+43200-071500SAO  +0105CON  V0203201N00361006601MN0112001N1-01221-01331102521ADDAA101000095GD14991+0066099GF108991999999999999999999MA1102441101171MW1001REMAWY021?CON?11/18 11/19 12/6EQDQ01+999990APOSP 
051872605014745197401100000C+43200-071500SY-SA+0104CON  V0203305N00215005184MN0112005N1-01225-01335102545ADDAA101000095AA206001091AA324006091AJ100209199999999AL10699999AY171999GA1999+005184064GD14085+0051099GD20995+9999999GD30995+9999999GD40995+9999999GF108085081051004501999999KA1999M-01101KA2999N-02001MA1102541101255MD1210251+9999MW1021REMSYN035  126 70438 90101 90408 20022 41195AWY02690408?CON?11/18 11/19 12/6EQDQ01+000003PRSWM2Q02  00103PRCP99N01 00000JPWTH 1QNNE11 1 00610E11 1 00099E11 1 00099E11 1 00099G11 1 00017H11 1 15017K11 1 00008L11 1 00700M11 1 29900N11 1 00000Q11 1 10254S11 1 00010V11 1 01010X11 1 33004
012572605014745197401100100D+43200-071500SAO  +0105CON  V0209991C00001005101MN0112001N1-01221-01331102611ADDAA101000095GD14991+0051099GF108991999999999999999999MA1102611101341MW1001REMAWY021?CON?11/18 11/19 12/6EQDQ01+999990APOSP 
009572605014745197401100200D+43200-071500SAO  +0105CON  V0209991C00001005401MN0112001N1-01221-01331102781ADDAA101000095GD14991+0054099GF108991999999999999999999MA1102711101441MW1001EQDQ01+999990APOSP 
038172605014745197401100300C+43200-071500SAO  +0104CON  V0209995900005004574MN0112005N1-01225-01335102825ADDAA101000095GA1999+004574064GD14085+0045099GD20995+9999999GD30995+9999999GD40995+9999999GF108085999999999999999999MA1102741101465MD1110201+9999MW1001REMAWY029120 15//?CON?11/18 11/19 12/6EQDQ01+999990APOSP N01 00000JPWTH 1QNNE11 1 00610E11 1 00099E11 1 00099E11 1 00099G11 1 00015H11 1 15015K11 1 00008L11 1 00700M11 1 29960N11 1 00000Q11 1 10282S11 1 00010V11 1 01010X11 1 00000
012572605014745197401100400D+43200-071500SAO  +0105CON  V0209991C00001004501MN0112001N1-01161-01221102821ADDAA101000095GD14991+0045099GF108991999999999999999999MA1102741101471MW1001REMAWY021?CON?11/18 11/19 12/6EQDQ01+999990APOSP 
012972605014745197401100500D+43200-071500SAO  +0105CON  V0209991C00001003901MN0112001N1-01221-01221102821ADDAA101000095GD14991+0039099GF108991999999999999999999MA1102741101471MW1701REMAWY025SB40?CON?11/18 11/19 12/6EQDQ01+999990APOSP 
045372605014745197401100600C+43200-071500SY-SA+0104CON  V0209995900005003964MN0112005N1-01175-01225102855ADDAA101000095AJ100209199999999AL10699999AY121999GA1999+003964064GD14085+0039099GD20995+9999999GD30995+9999999GD40995+9999999GF108085081051004501999999KA1999M-01101KA2999N-01701MA1102781101495MD1310031+9999MW1701MW2715REMSYN023  149 70028 90408 41100AWY021?CON?11/18 11/19 12/6EQDN01 04000JPWTH 1QNNE11 1 00610E11 1 00099E11 1 00099E11 1 00099G11 1 00013H11 1 15013K11 1 00010L11 1 00700M11 1 29970N11 1 04000Q11 1 10285S11 1 00011V11 1 01010X11 1 00000
012572605014745197401100700D+43200-071500SAO  +0105CON  V0209991C00001003901MN0112001N1-01161-01161102881ADDAA101000095GD14991+0039099GF108991999999999999999999MA1102811101541MW1701REMAWY021?CON?11/18 11/19 12/6EQDQ01+999990APOSP 
012572605014745197401100800D+43200-071500SAO  +0105CON  V0203201N00151003301MN0112001N1-01161-01161102881ADDAA101000095GD14991+0033099GF108991999999999999999999MA1102811101541MW1701REMAWY021?CON?11/18 11/19 12/6EQDQ01+999990APOSP 
042672605014745197401100900C+43200-071500SAO  +0104CON  V0209995900005003354MN0048005N1-01175-01175102885ADDAA101000095AA206999999GA1999+003354064GD14085+0033099GD20995+9999999GD30995+9999999GD40995+9999999GF108085999999999999999999MA1102811101525MD1110031+9999MW1715REMAWY03110300 15//?CON?11/18 11/19 12/6EQDQ01+999990APOSP Q02  00003PRCP99Q03  00002PRCP06N01 04000JPWTH 1QNNE11 1 00610E11 1 00099E11 1 00099E11 1 00099G11 1 00011H11 1 15011K11 1 00011L11 1 00300M11 1 29980N11 1 04000Q11 1 10288S11 1 00011V11 1 01010X11 1 00000
0114726050147451974011009274+43200-071500SAOSP+0105CON  V0203201N00151001501MN0040001N1+99999+99999999999ADDGD14991+0015099GF108991999999999999999999MA1102811101541MW1711REMAWY021?CON?11/18 11/19 12/6EQDQ01+999990APOSP 
012572605014745197401101000D+43200-071500SAO  +0105CON  V0209991C00001001501MN0032001N1-01161-01161102851ADDAA101000095GD14991+0015099GF108991999999999999999999MA1102781101511MW1711REMAWY021?CON?11/18 11/19 12/6EQDQ01+999990APOSP 
015172605014745197401101100D+43200-071500SAO  +0105CON  V0209991C00001001501MN0032001N1-01161-01161102881ADDAA101000095GD13991+0015099GD24991+0030099GF108991999999999999999999MA1102811101541MW1561MW2701REMAWY026ZLB20?CON?11/18 11/19 12/6EQDQ01+999990APOSP 
047772605014745197401101200C+43200-071500SY-SA+0104CON  V02099959000050030549N0040005N1-01115-01115102885ADDAA101000095AA224006091AL10699999AY151999GA1999+001524134GA2999+003054054GD12025+0015099GD24065+0030099GD30995+9999999GD40995+9999999GF108085021071001501021999KA1999N-01201MA1102811101525MW1565MW2701MW3715REMSYN029  152 70048 40408 90700 20022AWY03990408?CON?11/18 11/19        ?     12/6EQDN01 03640JPWTH 1QNNE11 1 00203E11 1 00607E11 1 00099E11 1 00099G11 1 00010H11 1 13005H11 1 22010K11 1 00012L11 1 00250M11 1 29980N11 1 03640Q11 1 10288S11 1 00012V11 1 01010X11 1 00000
014672605014745197401101300D+43200-071500SAO  +0105CON  V0209991C000010030019N0024001N1-01111-01111102781ADDAA101000395GD12991+0015099GD24991+0030099GF108991999999999999999999MA1102711101441MW1711MW2791REMAWY021?CON?11/18 11/19 12/6EQDQ01+999990APOSP 
013072605014745197401101400D+43200-071500SAO  +0105CON  V0203101N00151002401EN0020001N1-01051-01051102811ADDAA101000895GD14991+0024099GF108991999999999999999999MA1102741101471MW1711REMAWY026IPE10?CON?11/18 11/19 12/6EQDQ01+999990APOSP 
036472605014745197401101500C+43200-071500SAO  +0104CON  V0209995900005001524WN0013005N1-01005-01005102755ADDAA101000895GA1999+001524104GD15085+0015099GD20995+9999999GD30995+9999999GD40995+9999999GF108085999999999999999999MA1102681101425MW1715REMAWY02681206?CON?11/18 11/19 12/6EQDQ01+999990APOSP N01 04000JPWTH 1QNNE11 1 00710E11 1 00099E11 1 00099E11 1 00099G11 1 00005H11 1 98005K11 1 00014L11 1 00081M11 1 29950N11 1 04000Q11 1 10275S11 1 00014V11 1 01010X11 1 00000
012572605014745197401101600D+43200-071500SAO  +0105CON  V0203101N00201001501WN0012001N1-00941-00941102711ADDAA101000895GD15991+0015099GF109991999999999999999999MA1102641101371MW1711REMAWY021?CON?11/18 11/19 12/6EQDQ01+999990APOSP 
013172605014745197401101700D+43200-071500SAO  +0105CON  V0203201N00251001501WN0012001N1-00881-00881102601ADDAA101000595GD15991+0015099GF109991999999999999999999MA1102511101241MW1451MW2711REMAWY021?CON?11/18 11/19 12/6EQDQ01+999990APOSP 
051472605014745197401101800C+43200-071500SY-SA+0104CON  V0203105N00315001524WN0013005N1-00945-00945102535ADDAA101000595AA206004091AA324005091AJ100259100018099AL10699999AY171999GA1999+001524104GD15085+0015099GD20995+9999999GD30995+9999999GD40995+9999999GF108085091999999999999999KA1999M-00801KA2999N-01101MA1102441101195MD1710241+9999MW1455MW2715REMSYN041  118 71588 90102 90207 90410 20019 41  0AWY02690410?CON?11/18 11/19 12/6EQDQ01  00403PRCP99N01 04070JPWTH 1QNNE11 1 00710E11 1 00099E11 1 00099E11 1 00099G11 1 00005H11 1 98005K11 1 00015L11 1 00081M11 1 29880N11 1 04070Q11 1 10253S11 1 00015V11 1 01010X11 1 31006
013072605014745197401101900D+43200-071500SAO  +0105CON  V0203101N00301002101WN0020001N1-00881-00881102441ADDAA101000595GD15991+0021099GF109991999999999999999999MA1102371101111MW1451MW2711REMAWY020?CON?11/8 11/19 12/6EQDQ01+999990APOSP 
0084726050147451974011019394+43200-071500SAOSP+0105CON  V0203201N00151007501MN0112001N1+99999+99999999999ADDGD14991+0075099GF108991999999999999999999MA1102301101041MW1701EQDQ01+999990APOSP 
014072605014745197401102000D+43200-071500SAO  +0105CON  V0203101N002010060019N0192001N1-00831-00831102391ADDAA101000595GD12991+0030099GD24991+0060099GF108991999999999999999999MA1102301101041MW1701REMAWY021?CON?11/18 11/19 12/6EQDQ01+999990APOSP 
0120726050147451974011020234+43200-071500SAOSP+0105CON  V0209991C00001001801WN0016001N1+99999+99999999999ADDGD15991+0018099GF109991999999999999999999MA1102301101041MW1711REMAWY027UA SFC-70 LGT RIME ICG C310EQDQ01+999990APOSP 
036472605014745197401102100C+43200-071500SAO  +0104CON  V0209995900005001524WN0013005N1-00785-00835102325ADDAA101000395GA1999+001524104GD15085+0015099GD20995+9999999GD30995+9999999GD40995+9999999GF108085999999999999999999MA1102271100985MW1715REMAWY02671905?CON?11/18 11/19 12/6EQDQ01+999990APOSP N01 04000JPWTH 1QNNE11 1 00710E11 1 00099E11 1 00099E11 1 00099G11 1 00005H11 1 98005K11 1 00017L11 1 00081M11 1 29820N11 1 04000Q11 1 10232S11 1 00018V11 1 01010X11 1 00000
012572605014745197401102200D+43200-071500SAO  +0105CON  V0203201N00151001501WN0012001N1-00831-00831102281ADDAA101000395GD15991+0015099GF109991999999999999999999MA1102241100971MW1711REMAWY021?CON?11/18 11/19 12/6EQDQ01+999990APOSP 
012572605014745197401102300D+43200-071500SAO  +0105CON  V0203201N00151001501WN0012001N1-00831-00831102281ADDAA101000395GD15991+0015099GF109991999999999999999999MA1102241100971MW1711REMAWY021?CON?11/18 11/19 12/6EQDQ01+999990APOSP 
050272605014745197401110000C+43200-071500SY-SA+0104CON  V0209995900005001834WN0016005N1-00785-00785102245ADDAA101000395AA206002091AA324006091AJ100289199999999AL10699999AY171999GA1999+001834104GD15085+0018099GD20995+9999999GD30995+9999999GD40995+9999999GF108085091999999999999999KA1999M-00701KA2999N-01101MA1102201100915MD1710071+9999MW1715REMSYN035  092 70888 90101 90411 20023 41810AWY02690411?CON?11/18 11/19 12/6EQDQ01  00203PRCP99N01 04000JPWTH 1QNNE11 1 00710E11 1 00099E11 1 00099E11 1 00099G11 1 00006H11 1 98006K11 1 00018L11 1 00100M11 1 29800N11 1 04000Q11 1 10224S11 1 00018V11 1 01010X11 1 00000
013172605014745197401110100D+43200-071500SAO  +0105CON  V0209991C00001004501MN0032001N1-00771-00771102181ADDAA101000095GD14991+0045099GF108991999999999999999999MA1102131100871MW1451MW2701REMAWY021?CON?11/18 11/19 12/6EQDQ01+999990APOSP 
013172605014745197401110200D+43200-071500SAO  +0105CON  V0209991C00001003601MN0024001N1-00771-00771102111ADDAA101000095GD14991+0036099GF108991999999999999999999MA1102071100801MW1451MW2711REMAWY021?CON?11/18 11/19 12/6EQDQ01+999990APOSP 
041672605014745197401110300C+43200-071500SAO  +0104CON  V0209995900005002744MN0016005N1-00725-00725102075ADDAA101000595AA206000591GA1999+002744134GD14085+0027099GD20995+9999999GD30995+9999999GD40995+9999999GF108085999999999999999999MA1102031100755MD1710171+9999MW1455MW2715REMAWY03171702 16//?CON?11/18 11/19 12/6EQDQ01+999990APOSP Q02  00053PRCP99N01 04070JPWTH 1QNNE11 1 00610E11 1 00099E11 1 00099E11 1 00099G11 1 00009H11 1 13009K11 1 00019L11 1 00100M11 1 29750N11 1 04070Q11 1 10207S11 1 00019V11 1 01010X11 1 00000
012572605014745197401110400D+43200-071500SAO  +0105CON  V0209991C00001004501MN0024001N1-00721-00721102071ADDAA101000595GD14991+0045099GF108991999999999999999999MA1102031100771MW1711REMAWY021?CON?11/18 11/19 12/6EQDQ01+999990APOSP 
013172605014745197401110500D+43200-071500SAO  +0105CON  V0209991C00001004501MN0024001N1-00721-00721101931ADDAA101000395GD14991+0045099GF108991999999999999999999MA1101861100601MW1451MW2711REMAWY021?CON?11/18 11/19 12/6EQDQ01+999990APOSP 
050872605014745197401110600C+43200-071500SY-SA+0104CON  V0209995900005004574MN0024005N1-00725-00725101865ADDAA101000895AA206002091AA324008091AJ100309199999999AL10699999AY121999GA1999+004574134GD14085+0045099GD20995+9999999GD30995+9999999GD40995+9999999GF108085081071004501999999KA1999M-00601KA2999N-01101MA1101801100545MD1810221+9999MW1455MW2715REMSYN035  053 70788 90101 90412 20030 42010AWY02690412?CON?11/18 11/19 12/6EQDQ01  00203PRCP99N01 04070JPWTH 1QNNE11 1 00610E11 1 00099E11 1 00099E11 1 00099G11 1 00015H11 1 13015K11 1 00019L11 1 00150M11 1 29690N11 1 04070Q11 1 10186S11 1 00019V11 1 01010X11 1 00000
013172605014745197401110700D+43200-071500SAO  +0105CON  V0209991C00001001801WN0016001N1-00721-00721101791ADDAA101000895GD15991+0018099GF109991999999999999999999MA1101731100471MW1451MW2711REMAWY021?CON?11/18 11/19 12/6EQDQ01+999990APOSP 
013172605014745197401110800D+43200-071500SAO  +0105CON  V0209991C00001001801WN0016001N1-00721-00721101761ADDAA101001095GD15991+0018099GF109991999999999999999999MA1101691100431MW1451MW2711REMAWY021?CON?11/18 11/19 12/6EQDQ01+999990APOSP 
037072605014745197401110900C+43200-071500SAO  +0104CON  V0209995900005001224WN0013005N1-00725-00725101625ADDAA101000895GA1999+001224104GD15085+0012099GD20995+9999999GD30995+9999999GD40995+9999999GF108085999999999999999999MA1101561100305MW1455MW2715REMAWY02672410?CON?11/18 11/19 12/6EQDQ01+999990APOSP N01 04070JPWTH 1QNNE11 1 00710E11 1 00099E11 1 00099E11 1 00099G11 1 00004H11 1 98004K11 1 00019L11 1 00081M11 1 29620N11 1 04070Q11 1 10162S11 1 00019V11 1 01010X11 1 00000
0090726050147451974011109054+43200-071500SAOSP+0105CON  V0209991C00001004501MN0024001N1+99999+99999999999ADDGD14991+0045099GF108991999999999999999999MA1101561100301MW1451MW2711EQDQ01+999990APOSP 
014272605014745197401111000D+43200-071500SAO  +0105CON  V0209991C00001004501MN0040001N1-00661-00661101591ADDAA101000595GD14991+0045099GF108991999999999999999999MA1101491100231MW1451MW2711MW3791REMAWY026IPB40?CON?11/18 11/19 12/6EQDQ01+999990APOSP 
015072605014745197401111100D+43200-071500SAO  +0105CON  V0209991C00001003901MN0040001N1-00611-00611101491ADDAA101000595GD14991+0039099GF108991999999999999999999MA1101421100171MW1661MW2791REMAWY040SE40ZRB40?CON?11/18 11/19          ?12/6EQDQ01+999990APOSP 
053972605014745197401111200C+43200-071500SY-SA+0104CON  V0203405N00215003664MN0040005N1-00615-00615101385ADDAA101001595AA206005091AA324013091AJ100339199999999AL10699999AY161999GA1999+003664134GD14085+0036099GD20995+9999999GD30995+9999999GD40995+9999999GF108085081071004501999999KA1999M-00601KA2999N-00701MA1101321100075MW1455MW2665MW3715MW4795REMSYN041  005 72088 90102 90413 90700 20050 41917AWY02690413?CON?11/18 11/19 12/6EQDQ01  00503PRCP99N01 02640JPWTH 1N02 06070JPWTH 1QNNE11 1 00610E11 1 00099E11 1 00099E11 1 00099G11 1 00012H11 1 13012K11 1 00021L11 1 00250M11 1 29550N11 1 02640N11 1 06070Q11 1 10138S11 1 00021V11 1 01010X11 1 34004
016172605014745197401111300D+43200-071500SAO  +0105CON  V0203401N002510036019N0048001N1-00551-00551101351ADDAA101000595GD12991+0018099GD24991+0036099GF108991999999999999999999MA1101291100031MW1451MW2661MW3791REMAWY030SE20?CON?11/18 11/19 12/6    SEQDQ01+999990APOSP 
015272605014745197401111400D+43200-071500SAO  +0105CON  V0203101N00251001201EN0032001N1-00441-00441101341ADDAA101000595GD13991+0012099GD24991+0024099GF108991999999999999999999MA1101291100031MW1451MW2661MW3791REMAWY021?CON?11/18 11/19 12/6EQDQ01+999990APOSP 
042072605014745197401111500C+43200-071500SAO  +0104CON  V0200405N00215001524MN0032005N1-00395-00395101275ADDAA101000595GA1999+001524054GD14085+0015099GD20995+9999999GD30995+9999999GD40995+9999999GF108085999999999999999999MA1101221099975MD1810101+9999MW1455MW2665MW3795REMAWY029810 102/?CON?11/18 11/19 12/6EQDQ01+999990APOSP N01 02660JPWTH 1N02 07000JPWTH 1QNNE11 1 00610E11 1 00099E11 1 00099E11 1 00099G11 1 00005H11 1 22005K11 1 00025L11 1 00200M11 1 29520N11 1 02660N11 1 07000Q11 1 10127S11 1 00025V11 1 01010X11 1 04004
020872605014745197401111600D+43200-071500SAO  +0105CON  V0200301N00151001501EN0048001N1-00381-00381101151ADDAA101000395GD13991+0015099GD24991+0030099GF108991999999999999999999MA1101081099831MW1451MW2661MW3791REMAWY077?CON?11/18 11/19 12/6        ?     COS ECWT WYUXQQXEXPPPPXPPEXST 12 HND S-W-NEQDQ01+999990APOSP 
015472605014745197401111700D+43200-071500SAO  +0105CON  V0200401N00251003901MN0048001N1-00441-00441100941ADDAA101000395GD14991+0039099GF108991999999999999999999MA1100881099631MW1451MW2661REMAWY044PRESFR IPE40?CON?11/18 11/19 12          ?/6EQDQ01+999990APOSP 
051872605014745197401111800C+43200-071500SY-SA+0104CON  V0200305N00265003664MN0160005N1-00445-00505100845ADDAA101000395AA206002091AA324011091AJ100339100030099AL10699999AY171999GA1999+003664064GD14085+0036099GD20995+9999999GD30995+9999999GD40995+9999999GF108085081051004501999999KA1999M-00301KA2999N-00701MA1100781099535MD1710421+9999MW1241REMSYN03569953 70988 90212 90413 20044 42518AWY026ZRE15?CON?11/18 11/19 12/6EQDQ01+000003PRSWM2Q02  00203PRCP99N01 00000JPWTH 1QNNE11 1 00610E11 1 00099E11 1 00099E11 1 00099G11 1 00012H11 1 15012K11 1 00023L11 1 01000M11 1 29390N11 1 00000Q11 1 10084S11 1 00024V11 1 01010X11 1 03005
014572605014745197401111900D+43200-071500SAO  +0105CON  V0200501N00201001801MN0160001N1-00501-00501100751ADDAA101000095GD13991+0018099GD24991+0036099GF108991999999999999999999MA1100681099431MW1661REMAWY026ZRB15?CON?11/18 11/19 12/6EQDQ01+999990APOSP 
014272605014745197401112000D+43200-071500SAO  +0105CON  V0200201N00151001801MN0112001N1-00501-00501100801ADDAA101000095GD14991+0018099GF108991999999999999999999MA1100751099501MW1001REMAWY038ZRE30 OVR ENE ?13?CON?11/18 11/19 12/6EQDQ01+999990APOSP 
041072605014745197401112100C+43200-071500SAO  +0104CON  V0209995900005001524MN0112005N1-00445-00505100765ADDAA101000095AA206000091GA1999+001524134GD14085+0015099GD20995+9999999GD30995+9999999GD40995+9999999GF108085999999999999999999MA1100711099465MD1710081+9999MW1001REMAWY03170800 16//?CON?11/18 11/19 12/6EQDQ01+999990APOSP Q02  00003PRCP99N01 00000JPWTH 1QNNE11 1 00610E11 1 00099E11 1 00099E11 1 00099G11 1 00005H11 1 13005K11 1 00023L11 1 00700M11 1 29370N11 1 00000Q11 1 10076S11 1 00024V11 1 01010X11 1 00000
012572605014745197401112200D+43200-071500SAO  +0105CON  V0209991C00001001501MN0112001N1-00441-00501100871ADDAA101000095GD14991+0015099GF108991999999999999999999MA1100811099561MW1001REMAWY021?CON?11/18 11/19 12/6EQDQ01+999990APOSP 
017572605014745197401112300D+43200-071500SAO  +0105CON  V0203201N00151001501MN0112001N1-00441-00501100841ADDAA101000095GD13991+0015099GD24991+0045099GF108991999999999999999999MA1100781099531MD1210301+9999MW1001REMAWY042?CON?11/18 11/19 12/6        ?     COS 230EQDQ01+999990APOSP 
050772605014745197401120000C+43200-071500SY-SA+0104CON  V02099959000050048849N0112005N1-00445-00505100875ADDAA101000095AA224009091AJ100309199999999AL10699999AY161999GA1999+001524134GA2999+004884064GD12025+0015099GD24065+0048099GD30995+9999999GD40995+9999999GF108085081051004501999999KA1999M-00301KA2999N-00701MA1100811099565MD1210101+9999MW1021REMSYN02969955 70068 90412 20036 42518AWY021?CON?11/18 11/19 12/6EQDQ01+000003PRSWM2N01 00000JPWTH 1QNNE11 1 00203E11 1 00607E11 1 00099E11 1 00099G11 1 00016H11 1 13005H11 1 15016K11 1 00023L11 1 00700M11 1 29400N11 1 00000Q11 1 10087S11 1 00024V11 1 01010X11 1 00000
012572605014745197401120100D+43200-071500SAO  +0105CON  V0209991C00001004801MN0112001N1-00501-00551100911ADDAA101000095GD14991+0048099GF108991999999999999999999MA1100851099601MW1001REMAWY021?CON?11/18 11/19 12/6EQDQ01+999990APOSP 
012572605014745197401120200D+43200-071500SAO  +0105CON  V0209991C00001006901MN0112001N1-00501-00551101011ADDAA101000095GD14991+0069099GF108991999999999999999999MA1100951099701MW1001REMAWY021?CON?11/18 11/19 12/6EQDQ01+999990APOSP 
038172605014745197401120300C+43200-071500SAO  +0104CON  V0203005N00315007014MN0112005N1-00395-00565101125ADDAA101000095GA1999+007014064GD14085+0069099GD20995+9999999GD30995+9999999GD40995+9999999GF108085999999999999999999MA1101051099805MD1210241+9999MW1001REMAWY029224 15//?CON?11/18 11/19 12/6EQDQ01+999990APOSP N01 00000JPWTH 1QNNE11 1 00610E11 1 00099E11 1 00099E11 1 00099G11 1 00023H11 1 15023K11 1 00022L11 1 00700M11 1 29470N11 1 00000Q11 1 10112S11 1 00025V11 1 01010X11 1 30006
013372605014745197401120400D+43200-071500SAO  +0105CON  V0203101N00561006901MN0112001N1-00611-00881101201ADDAA101000095GD13991+0069099GF107991999999999999999999MA1101151099901MW1001OC100921REMAWY021?CON?11/18 11/19 12/6EQDQ01+999990APOSP 
012572605014745197401120500D+43200-071500SAO  +0105CON  V0203101N006112200019N0112001N1-00941-01271101241ADDAA101000095GD12991+0069099GF102991999999999999999999MA1101191099931MW1001REMAWY021?CON?11/18 11/19 12/6EQDQ01+999990APOSP 
029772605014745197401120600C+43200-071500SY-SA+0104CON  V0203105N005252200059N0112005N1-01065-01335101395ADDAA101000095AA224007091AY111999GF100005001001999999001991KA1999M-00301MA1101321100075MD1210271+9999MW1021REMSYN017  005 20029 42513AWY021?CON?11/18 11/19 12/6EQDQ01+000003PRSWM2N01 00000JPWTH 1QNNG11U1 99999K11 1 00008L11 1 00700M11 1 29550N11 1 00000Q11 1 10139S11 1 00013V11 1 00000X11 1 31010
011072605014745197401120700D+43200-071500SAO  +0105CON  V0203001N004112200019N0112001N1-01161-01381101461ADDAA101000095GF100991999999999999999999MA1101391100131MW1001REMAWY021?CON?11/18 11/19 12/6EQDQ01+999990APOSP 
011072605014745197401120800D+43200-071500SAO  +0105CON  V0202901N006112200019N0112001N1-01271-01501101521ADDAA101000095GF100991999999999999999999MA1101461100201MW1001REMAWY021?CON?11/18 11/19 12/6EQDQ01+999990APOSP 
023972605014745197401120900C+43200-071500SAO  +0104CON  V0203005N006252200059N0112005N1-01285-01505101625ADDAA101000095GF100005999999999999999999MA1101561100305MW1001OC100871REMAWY024224?CON?11/18 11/19 12/6EQDQ01+999990APOSP N01 00000JPWTH 1QNNG11U1 99999K11 1 00005L11 1 00700M11 1 29620N11 1 00000Q11 1 10162S11 1 00009V11 1 00000X11 1 30012
011072605014745197401121000D+43200-071500SAO  +0105CON  V0203201N002512200019N0112001N1-01271-01551101691ADDAA101000095GF100991999999999999999999MA1101631100371MW1001REMAWY021?CON?11/18 11/19 12/6EQDQ01+999990APOSP 
012572605014745197401121100D+43200-071500SAO  +0105CON  V0203201N003012200019N0112001N1-01331-01721101691ADDAA101000095GD12991+0300099GF102991999999999999999999MA1101631100371MW1001REMAWY021?CON?11/18 11/19 12/6EQDQ01+999990APOSP 
056072605014745197401121200C+43200-071500SY-SA+0104CON  V0203105N00365030484EN0112005N1-01335-01675101625ADDAA101000095AA224002091AJ100309199999999AL10699999AY111999GA1999+030484034GA2999+999999999GA3999+999999999GA4999+999999999GD13055+0300099GD20005+9999999GD30005+9999999GD40005+9999999GF105055061001999999051991KA1999M-00301KA2999N-01301MA1101561100305MD1010001+9999MW1021REMSYN023  029 90412 20009 42507AWY02690412?CON?11/18 11/19 12/6EQDQ01+000003PRSWM2N01 00000JPWTH 1QNNE11 1 00406E11 1 00000E11 1 00000E11 1 00000G11 1 00100H11 1 23100H11 1 00999H11 1 00999H11 1 00999K11 1 00002L11 1 00700M11 1 29620N11 1 00000Q11 1 10162S11 1 00008V11 1 00606X11 1 31007
012572605014745197401121300D+43200-071500SAO  +0105CON  V0203101N003612200019N0320001N1-01331-01611101671ADDAA101000095GD12991+0300099GF102991999999999999999999MA1101591100331MW1001REMAWY021?CON?11/18 11/19 12/6EQDQ01+999990APOSP 
012572605014745197401121400D+43200-071500SAO  +0105CON  V0203301N001512200019N0320001N1-01221-01551101791ADDAA101000095GD12991+0750093GF102991999999999999999999MA1101731100471MW1001REMAWY021?CON?11/18 11/19 12/6EQDQ01+999990APOSP 
044772605014745197401121500C+43200-071500SAO  +0104CON  V0203105N005252200059N0320005N1-01065-01505101825ADDAA101000095GA1999+999999034GA2999+999999999GA3999+999999999GA4999+999999999GD10005+9999999GD20005+9999999GD30005+9999999GF100005999999999999999999MA1101761100515MD1310201+9999MW1001REMAWY029320 1030?CON?11/18 11/19 12/6EQDQ01+999990APOSP N01 00000JPWTH 1QNNE11 1 00000E11 1 00000E11 1 00000E11 1 00000G11U1 99999H11 1 23999H11 1 00999H11 1 00999H11 1 00999K11 1 00005L11 1 02000M11 1 29680N11 1 00000Q11 1 10182S11 1 00013V11 1 00000X11 1 31010
011072605014745197401121600D+43200-071500SAO  +0105CON  V0203201N003012200019N0320001N1-00941-01331101831ADDAA101000095GF100991999999999999999999MA1101761100501MW1001REMAWY021?CON?11/18 11/19 12/6EQDQ01+999990APOSP 
014272605014745197401121700D+43200-071500SAO  +0105CON  V0203101N006112200019N0320001N1-01161-01331101821ADDAA101000095GF100991999999999999999999MA1101731100471MW1001REMAWY021?CON?11/18 11/19 12/6EQDQ01+101193APOSLPQ02+999990APOSP Q03+999990APOSLP
054572605014745197401121800C+43200-071500SY-SA+0104CON  V0203105N004652200059N0320005N1-00785-01285101775ADDAA101000095AJ199999900030099AY111999GA1999+999999064GA2999+999999999GA3999+999999999GA4999+999999999GD10005+9999999GD20005+9999999GD30005+9999999GF199009011051008001001991KA1999M-00701KA2999N-01301MA1101691100445MD1810051+9999MW1021REMSYN017  044 90212 41807AWY021?CON?11/18 11/19 12/6EQDQ01+000002SCOTCVQ02+000003PRSWM2N01 00000JPWTH 1P01    003SCOTCVQNNE11 1 00000E11 1 00000E11 1 00000E11 1 00000G11U1 99999H11 1 15999H11 1 00999H11 1 00999H11 1 00999K11 1 00009L11 1 02000M11 1 29660N11 1 00000Q11 1 10177S11 1 00018V11 1 00000X11 1 31009
012572605014745197401122000D+43200-071500SAO  +0105CON  V0203001N005112200019N0320001N1-00721-01331101901ADDAA101000095GD12991+0090099GF102991999999999999999999MA1101831100571MW1001REMAWY021?CON?11/18 11/19 12/6EQDQ01+999990APOSP 
046272605014745197401122100C+43200-071500SAO  +0104CON  V0203005N004152200059N0320005N1-00725-01395101975ADDAA101000095GA1999+009144084GA2999+999999999GA3999+999999999GA4999+999999999GD12015+0090099GD20005+9999999GD30005+9999999GD40005+9999999GF101015999999999999999999MA1101901100645MD1310191+9999MW1001REMAWY029319 1100?CON?11/18 11/19 12/6EQDQ01+999990APOSP N01 00000JPWTH 1QNNE11 1 00201E11 1 00000E11 1 00000E11 1 00000G11U1 99999H11 1 11030H11 1 00999H11 1 00999H11 1 00999K11 1 00007L11 1 02000M11 1 29720N11 1 00000Q11 1 10197S11 1 00019V11 1 00101X11 1 30008
011072605014745197401122200D+43200-071500SAO  +0105CON  V0203101N002512200019N0320001N1-00881-01441102041ADDAA101000095GF100991999999999999999999MA1101961100701MW1001REMAWY021?CON?11/18 11/19 12/6EQDQ01+999990APOSP 
011072605014745197401122300D+43200-071500SAO  +0105CON  V0202801N004112200019N0112001N1-01111-01501102081ADDAA101000095GF100991999999999999999999MA1102001100741MW1001REMAWY021?CON?11/18 11/19 12/6EQDQ01+999990APOSP 
029372605014745197401130000C+43200-071500SY-SA+0104CON  V0203005N004152200059N0112005N1-00945-01785102185ADDAA101000095AY101999GF100005001001999999001991KA1999M-00601KA2999N-01301MA1102101100855MD1210201+9999MW1021REMSYN011  083 42007AWY021?CON?11/18 11/19 12/6EQDQ01+000003PRSWM2N01 00000JPWTH 1QNNG11U1 99999K11 1 00000L11 1 00700M11 1 29780N11 1 00000Q11 1 10218S11 1 00015V11 1 00000X11 1 30008
011072605014745197401130100D+43200-071500SAO  +0105CON  V0203001N006112200019N0112001N1-01051-02111102321ADDAA101000095GF100991999999999999999999MA1102241100971MW1001REMAWY021?CON?11/18 11/19 12/6EQDQ01+999990APOSP 
011872605014745197401130200D+43200-071500SAO  +0105CON  V0203101N007712200019N0112001N1-01161-02441102451ADDAA101000095GF100991999999999999999999MA1102371101111MW1001OC101081REMAWY021?CON?11/18 11/19 12/6EQDQ01+999990APOSP 
023972605014745197401130300C+43200-071500SAO  +0104CON  V0203105N007252200059N0112005N1-01335-02565102625ADDAA101000095GF100005999999999999999999MA1102541101295MW1001OC101131REMAWY024244?CON?11/18 11/19 12/6EQDQ01+999990APOSP N01 00000JPWTH 1QNNG11U1 99999K11 1-00014L11 1 00700M11 1 29910N11 1 00000Q11 1 10262S11 1 00008V11 1 00000X11 1 31014
011072605014745197401130400D+43200-071500SAO  +0105CON  V0203101N003012200019N0112001N1-01441-02551102701ADDAA101000095GF100991999999999999999999MA1102611101341MW1001REMAWY021?CON?11/18 11/19 12/6EQDQ01+999990APOSP 
014272605014745197401130500D+43200-071500SAO  +0105CON  V0200401N002012200019N0112001N1-01721-02501102771ADDAA101000095GF100991999999999999999999MA1102641101371MW1001REMAWY021?CON?11/18 11/19 12/6EQDQ01+101743APOSLPQ02+999990APOSP Q03+999990APOSLP
